:020000040800F2
:1000000078B60020650200083B100008930E000837
:1000100039100008CF030008951100080000000007
:10002000000000000000000000000000CD010008FA
:10003000D103000800000000110200081D11000893
:100040007F0200087F0200087F0200087F0200088C
:100050007F0200087F0200087F0200087F0200087C
:100060007F0200087F0200087F0200087F0200086C
:100070007F0200087F0200087F0200087F0200085C
:100080007F0200087F0200087F0200087F0200084C
:100090007F0200087F0200087F0200087F0200083C
:1000A0007F0200087F0200087F0200087F0200082C
:1000B0007F0200087F0200087F0200087F0200081C
:1000C0007F0200087F0200087F0200087F0200080C
:1000D0007F0200087F0200087F0200087F020008FC
:1000E0007F0200087F0200087F0200087F020008EC
:1000F0007F0200087F0200087F0200087F020008DC
:100100007F0200087F0200087F0200087F020008CB
:100110007F0200087F0200087F0200087F020008BB
:100120007F0200087F0200087F0200087F020008AB
:1001300000F002F800F03AF80AA090E8000C8244BF
:100140008344AAF10107DA4501D100F02FF8AFF29C
:10015000090EBAE80F0013F0010F18BFFB1A43F0A5
:1001600001031847702E0000902E0000103A24BFA3
:1001700078C878C1FAD8520724BF30C830C144BF0C
:1001800004680C607047000000230024002500264E
:10019000103A28BF78C1FBD8520728BF30C148BFEA
:1001A0000B6070471FB51FBD10B510BD00F0D6F82D
:1001B0001146FFF7F7FF01F0AFF800F0F4F803B4D1
:1001C000FFF7F2FF03BC00F0FBF80000224B1968B8
:1001D0000868B0E8F00F80F30988BFF36F8F4FF025
:1001E000000080F311884EF00D0E704700000000F3
:1001F00006480068006880F3088862B661B6BFF3FD
:100200004F8FBFF36F8F00DF00BF00BF08ED00E02E
:10021000EFF30980BFF36F8F0F4B1A6820E9F00FDF
:10022000106008B54FF0500080F31188BFF34F8F76
:10023000BFF36F8F01F00CFC4FF0000080F31188CA
:10024000BDE8084019680868B0E8F00F80F3098835
:10025000BFF36F8F704700BF18000020EFF30580D9
:10026000704700000948804709480047FEE7FEE75D
:10027000FEE7FEE7FEE7FEE7FEE7FEE7FEE7FEE756
:1002800004480549054A064B7047000093110008D1
:100290003101000878B0002078B6002078B2002044
:1002A00078B2002010B5203AC0F00B80B1E81850A9
:1002B000203AA0E81850B1E81850A0E81850BFF450
:1002C000F5AF5FEA027C24BFB1E81850A0E81850EF
:1002D00044BF18C918C0BDE810405FEA827C24BF43
:1002E00051F8043B40F8043B08BF7047D20728BFD1
:1002F00031F8023B48BF11F8012B28BF20F8023B20
:1003000048BF00F8012B70474FF0000200B51346BC
:1003100094469646203922BFA0E80C50A0E80C5025
:10032000B1F12001BFF4F7AF090728BFA0E80C50D6
:1003300048BF0CC05DF804EB890028BF40F8042BCF
:1003400008BF704748BF20F8022B11F0804F18BF3C
:1003500000F8012B7047704770477047754600F0F2
:100360002BF8AE4605006946534620F00700854647
:1003700018B020B5FFF784FFBDE820404FF000061D
:100380004FF000074FF000084FF0000B21F007017D
:10039000AC46ACE8C009ACE8C009ACE8C009ACE8C0
:1003A000C0098D46704710B50446AFF30080204663
:1003B000BDE81040FFF703BF0048704718B00020A9
:1003C00001491820ABBEFEE7260002007047FEE799
:1003D000704772B6FEE7000070B5044600F018F9E9
:1003E0000546601C02D004480078044400F010F96F
:1003F000401BA042FAD370BD080000202DE9F84F41
:10040000DFF8C891002409F1040A0AF1040B23461D
:100410000F270BF1040ED1E00125A54006EA0502E5
:10042000AA4276D1DFF8A8C14E68A6EB0C08664553
:100430002BD00DDC032E34D005DC36B3012E19D0C1
:10044000022E2FD11BE0112E16D0122E2AD119E028
:10045000B8F5881F19D006DCB8F5803F15D0B8F57F
:10046000801F1FD111E0B8F5001F0ED0B8F5041F92
:1004700018D10AE0CB6815E0CB681B1D12E0CB68F1
:1004800008330FE0CB680C330CE08B682BB1012BE9
:100490004FF0080303D0456104E0042302E0056146
:1004A00000E00023FF2A01D8064601E000F104061F
:1004B0004FEA840501D9A5F12005D6F8008007FA96
:1004C00005FC28EA0C0803FA05F548EA0508C6F811
:1004D00000804D68ED0070D53E4DAE6946F00106D6
:1004E000AE61AD6924F0030605F0010500953A4DB3
:1004F00006EB050CDCF80850A607360F07FA06F8DD
:1005000025EA0805DFF8D480404503D14FF0000804
:1005100025E052E0DFF8C880404502D14FF00108E5
:100520001DE0DFF8C080404502D14FF0020816E020
:10053000DFF8B480404502D14FF003080FE0DFF848
:10054000AC80404502D14FF0040808E0DFF8A080FD
:10055000404502D14FF0050801E04FF0060808FAC7
:1005600006F848EA0508CCF808804D68D9F800601C
:10057000ED034D4601D5164300E096432E604D68CD
:10058000DAF80060AD03554601D5164300E0964306
:100590002E604D68DBF80060ED025D4601D5164324
:1005A00000E096432E604D68DEF80060AD027546AF
:1005B00001D5164300E096432E60641C0A68164677
:1005C000E2407FF429AFBDE8F88F0000000401404D
:1005D000000011100010024000000140000801401E
:1005E000000C0140001001400014014000180140BF
:1005F000001C0140C26821EA02030A4043EA0241AA
:10060000016170470AB1016170470904FBE700000E
:100610000148806870470000080000200248816897
:10062000027811448160704708000020074810B527
:10063000016841F010010160032000F06DF80F2007
:1006400000F006F800F024F8002010BD0020024061
:1006500070B50D4D04464FF47A712878B1FBF0F077
:100660000A490968B1FBF0F000F0FFFB48B9102C13
:1006700007D200222146501E00F02EF800206C60A8
:1006800070BD012070BD0000080000201400002093
:100690000F4808B5816941F001018161816901F06C
:1006A00001010091C16941F08051C161C06900221E
:1006B00000F0805000900F21901E00F00DF80548CA
:1006C000416821F0E06141F00071416008BD000027
:1006D0000010024000000140F0B40E4B1B680C46B5
:1006E000C3F30223C3F10705042D00D90425191D06
:1006F000072901D2002300E0DB1E012606FA05F1DE
:10070000491E214099409E40761E16403143F0BC60
:1007100000F041BD0CED00E0064900F0070208685A
:100720004FF6FF03184040EA0220034A10430860D6
:10073000704700000CED00E00000FA052DE9F047DD
:100740000F46050061D0434E306800F00700B84204
:1007500009D2306820F0070038433060306800F07C
:100760000700B84251D128683B4C810712D5400799
:1007700003D5606840F4E06060602878000703D526
:10078000606840F4605060606068A96820F0F00024
:10079000084360602878C00728D06868012810D016
:1007A0002168022810D0890700292EDA616821F01B
:1007B000030101436160FFF72BFF804641F2883956
:1007C0000DE021688903EFE78901EDE7FFF720FFDE
:1007D000A0EB0801494502D90320BDE8F087606815
:1007E000696800F00C00B0EB810FEFD1306800F0C9
:1007F0000700B8420BD9306820F00700384330605A
:10080000306800F00700B84201D00120E5E7287801
:10081000400705D56068E96820F4E060084360603F
:100820002878000706D56068296920F4605040EAFE
:10083000C100606000F018F86168084AC1F3031154
:10084000515CC8400649086006480068FFF700FF91
:100850000020C2E70020024000100240101E0008E5
:10086000140000200C00002012A185B00FC98DE8F3
:100870000F0014A0144A006804905168134801F056
:100880000C03042B10D0082B0ED1C1F38343C903F2
:100890001DF803000AD5516804AAC1F34041515C18
:1008A0000A4A5043B0FBF1F005B07047084948438D
:1008B000FAE7000002030405060708090A0B0C0DFD
:1008C0000E0F1010010200000010024000127A000A
:1008D00000093D002DE9F84F040070D02078C04D8C
:1008E000C00749D06868C0F38100012807D0686854
:1008F000C0F38100022809D16868C00306D52868C2
:10090000800339D560680028E7D035E06068B0F52D
:10091000803F0BD010B1B0F5A02F11D0286820F483
:1009200080302860286820F4802002E0286840F4A5
:1009300080302860606890B1FFF76AFE06460AE0E2
:10094000286840F480202860F0E700BFFFF760FED1
:10095000801B642873D828688003F7D50CE0FFF764
:1009600057FE064605E000BFFFF752FE801B6428D5
:10097000F0D828688003F7D420789A4E80074FF08B
:1009800001094FF0000839D5686810F00C0F07D046
:100990006868C0F38100022809D16868C00306D4E2
:1009A0002868800714D52069012808D110E0206943
:1009B000B0B1C6F80090FFF72BFE074605E00AE14C
:1009C000FFF726FEC01B0228C4D828688007F7D589
:1009D0002868616920F0F80040EAC10028600DE055
:1009E000C6F80080FFF714FE074604E0FFF710FE8C
:1009F000C01B022823D828688007F7D42078000776
:100A00002CD57948A169D9B1C0F80090FFF700FE54
:100A1000074604E0FFF7FCFDC01B02280FD8686AF8
:100A20008007F7D571484FF4FA510068B0FBF1F038
:100A3000009000BF0098411E0091FAD20EE080E0C5
:100A4000C0F80080FFF7E4FD074604E0FFF7E0FD93
:100A5000C01B022875D8686A8007F7D42078400741
:100A600060D5E8690027C00008D4E86940F08050EC
:100A7000E861E869012700F0805000905C48016857
:100A8000C90513D40168834641F480710160FFF702
:100A9000BFFD824606E000BFFFF7BAFDA0EB0A00EB
:100AA00064284ED8DBF80000C005F5D5E0680128C1
:100AB0000AD008B1052813D0286A20F00100286266
:100AC000286A20F0040002E0286A40F00100286251
:100AD000E06841F2883B98B1FFF79AFD82460BE04F
:100AE000286A40F004002862EEE700BFFFF790FD9F
:100AF000A0EB0A0159455AD8286A8007F6D50CE0C0
:100B0000FFF786FD824605E0FFF782FDA0EB0A01B4
:100B100059454CD8286A8007F6D41FB1E86920F0FF
:100B20008050E861E06988B36968C1F381010229F6
:100B300044D00228C6F8608004D0FFF769FD04465F
:100B400038E034E0FFF764FD074604E0FFF760FD9E
:100B5000C01B02282BD828688001F7D4206AB0F582
:100B6000803F05D16868A16820F4003008436860C0
:100B7000D4E908010843696821F4741108436860E6
:100B8000C6F86090FFF744FD044606E025E000BF8C
:100B9000FFF73EFD001B022809D828688001F7D521
:100BA0001BE000BFFFF734FD001B022802D9032021
:100BB000BDE8F88F28688001F4D40EE00128F7D052
:100BC0006868226A00F48031914204D1616A00F4BD
:100BD0007010884201D00120EAE70020E8E7000019
:100BE00000100240000042428004424214000020F3
:100BF0000070004070B5040009D0606A002540B163
:100C000025616561A56294F8510040B10CE00120B6
:100C100070BD6068B0F5827FF4D0E561F2E784F8DA
:100C20005050204600F040F8022084F8510020681F
:100C3000016821F040010160A088218900F48270E0
:100C400001F404410843A18901F400610843217CB7
:100C500001F002010843217D01F001010843218BCD
:100C600001F400710843217F01F03801084394F832
:100C7000201001F080010843218D01F40051084348
:100C800021680860A069042101EA104021684860D9
:100C90002068C16921F40061C1616565012084F8A3
:100CA0005100002070BD000000B585B0002100910A
:100CB00001910291039100680F4988421AD10F48AF
:100CC000816941F480518161816901F4805104910D
:100CD000816941F0040181618069694600F0040086
:100CE0000490A0200090022001900320039004486B
:100CF000FFF784FB05B000BD00300140001002404A
:100D0000000801402DE9F84F044690F850000027F4
:100D10001D461646894601280DD04FF0010B84F878
:100D200050B0FFF775FC804694F85100BA46012890
:100D300004D0022793E00220BDE8F88FB9F1000F3C
:100D400073D0002E71D0032084F85100C4F854A051
:100D5000C4F83090A686E686C4F838A0A4F83CA073
:100D6000A4F83EA0C4F844A0C4F840A0A068B0F520
:100D7000004F09D12068016821F04001016020681E
:100D8000016841F48041016020680168490603D48C
:100D9000016841F040010160E068B0F5006F6068F3
:100DA00003D030B3012E24D041E008B1012E1CD174
:100DB000206B21680088C86006E020688168890788
:100DC00009D5216B0988C160206B801C2063E08EEF
:100DD000401EE08609E0FFF71BFCA0EB0800A842DC
:100DE00002D3681C01D031E07DB3E08E0028E4D14D
:100DF00020E0206B21680078087306E02068816895
:100E0000890709D5216B09780173206B401C206389
:100E1000E08E401EE0860AE0FFF7FAFBA0EB080038
:100E2000A84203D3681C02D010E017E06DB1E08E39
:100E30000028E3D142462946204600F0FFF808B1D9
:100E400020206065A06818B106E0FFE7032706E0F0
:100E50002068C16880680090606D00B1012784F847
:100E600051B084F850A0384666E710B5401EB0F186
:100E7000807F01D3012010BD4FF0E02460610F217D
:100E8000601700F088F90020A06107202061002091
:100E900010BDFEE7054C4FF47A7520212046FFF780
:100EA000A9FB284600F057FAF7E70000000C0140C4
:100EB00010B58EB01C220B496846FFF7F3F90021EC
:100EC000684600F054FA084C06491C2220601C3188
:100ED00007A8FFF7E7F9002107A800F048FA6060CB
:100EE0000EB010BDD81D0008000000202DE9F04F05
:100EF00085B00024384800940194029403948169D9
:100F000041F040018161816901F0400104918169F2
:100F100041F010018161816901F010010491816942
:100F200041F004018161816901F00401049181694A
:100F300041F0080181618069DFF8A08000F00800BD
:100F40000490002220214046FFF75CFBDFF89090E0
:100F5000002258214846FFF755FBDFF888A0012200
:100F600010215046FFF74EFBDFF87CB00022202115
:100F70005846FFF747FB1820CDE900046946404674
:100F80000294FFF73BFA20270226012500970396DB
:100F9000CDE9015469464046FFF730FA5820CDE9C3
:100FA0000005CDE9024669464846FFF727FA1020BA
:100FB000CDE9000569465046CDE90245FFF71EFA26
:100FC00000970396CDE9015469465846FFF716FA93
:100FD00005B0BDE8F08F000000100240001801408D
:100FE0000008014000100140000C0140114810B5FC
:100FF0000F4901604FF4827141604FF400418160FC
:1010000000210222C0E903120122426152028261E0
:101010003822C0E90721416281620A21C162FFF7DB
:10102000E9FD002803D0BDE81040FFF7D2B910BD9C
:1010300000300140D0020020FEE7FEE738B50B4645
:10104000009204460022802100F008F8002804D015
:10105000606D40F020006065032038BD2DE9F84345
:101060001E46914688460446089DFFF7D1FA401B6C
:10107000351AFFF7CDFA074625480068C0F3CB3094
:10108000684338E0701C37D0FFF7C2FAC01BA84293
:1010900003D215B1009860B32CE02068416821F0BC
:1010A000E00141606068B0F5827F0BD1A068B0F5C7
:1010B000004F02D0B0F5806F04D12068016821F0A4
:1010C00040010160A06AB0F5005F09D120680168A5
:1010D00021F4005101602068016841F40051016071
:1010E000012084F85100002084F850000320BDE85E
:1010F000F8830025401E00902068816838EA0100CE
:1011000004D000214945BDD10020F0E70121F9E7D5
:1011100014000020012000F01EF9FBE710B5FFF7D6
:101120007DFA00F085FD012803D0BDE8104000F0F5
:1011300011BD10BD30B58FB028216846FFF7E4F827
:1011400014210AA8FFF7E0F801210804CDE90010F6
:101150000024029402250491CDE907504FF4E010D9
:1011600009906846FFF7B6FB08B172B6FEE70F209C
:10117000CDE90A054FF48060CDE90C4002210AA8B0
:101180000E94FFF7DBFA002801D072B6FEE70FB02D
:1011900030BD7047FEE70907090E002804DB00F1A7
:1011A000E02080F80014704700F00F0000F1E0200C
:1011B00080F8141D704700002DE9F0478618054699
:1011C0000C46DFF83490CF18DDF820800EE02B4677
:1011D00008E000BFA9F800801946204600F05EF83C
:1011E0005B1CDBB29E42F5D8641CE4B2A742EED889
:1011F000BDE8F04700F05EB878000020044A002106
:101200004FF4A04322F81100491C9942FAD37047C9
:101210001810002010B51E4C012240212046FFF777
:10122000F1F9012208212046FFF7ECF90A20FFF727
:10123000D3F8002208212046FFF7E4F90A20FFF73F
:10124000CBF8012208212046FFF7DCF9114C0FE012
:1012500001222146002000F03FF8A2781AB1E11CDB
:10126000012000F039F8607808B1FFF7B5F81334C1
:1012700020780028ECD1FFF7C1FF6420FFF7ACF81D
:101280000022BDE8104010210348FFF7BBB9000061
:1012900000080140202E000800100140034A00EB26
:1012A000C1100349128821F81020704778000020EF
:1012B0001810002008B52C208DF800000122694686
:1012C000002000F009F84FF420420249012000F00C
:1012D00003F808BD1810002070B514460C4E0D46DA
:1012E000024610213046FFF78DF90022402130469A
:1012F000FFF788F9A2B24CF2503329460548FFF7B0
:1013000001FD3046BDE8704001224021FFF77AB967
:1013100000080140D002002008B5FFF787F9FFF769
:1013200009FFFFF7E3FDFFF761FEFFF773FF4FF6DD
:10133000FF701723142100901A460846FFF73CFF60
:10134000FFF7B6FD00F00EF8FEE701460020842905
:1013500000D0C81C704710B500B9012000F014FB84
:10136000002010BD10B500F035FB002010BD7FB58A
:101370000D4604464169B0F9080081B1A16971B117
:10138000FFF7E3FFD4E905128DE80700D4E9001068
:101390002B46226900F021FC039004B070BDFFF7DA
:1013A000D4FF03A9CDE90001208A2B4682B2D4E9FB
:1013B000001000F0E5FB012801D00020EDE70398C4
:1013C000EBE700002DE9F041184C0F460546666931
:1013D0002068001D00F014FA38B9206890F82C102D
:1013E00001208840A1698143A161681C07D137B100
:1013F0002168BDE8F0410E48091D00F045BA20689B
:101400003544B5424560216805D2A068BDE8F04189
:10141000091D00F021BA6068091D00F01DFA206B5B
:10142000854200D22563BDE8F0810000180000204D
:10143000040400202DE9F041054600F031FA2E4C5D
:101440002069401C206120682C4F10B1E06940B336
:101450002DE025602069012829D1002606EB8600B1
:1014600007EB800000F0EAF9761C072EF6D323483C
:101470008C3000F0E3F92148A03000F0DFF91F487C
:10148000B43000F0DBF91D48C83000F0D7F91B4834
:10149000DC3000F0D3F919488C3060601430A06063
:1014A00005E02068E96AC06A884200D82560E06AE1
:1014B000401CE062E96A0120A26988401043A061F3
:1014C00001EB810007EB8000291D00F0DDF900F041
:1014D00007FAE06900280CD02068E96AC06A8842EF
:1014E00007D207494FF080500860BFF34F8FBFF31A
:1014F0006F8FBDE8F0810000180000202803002055
:1015000004ED00E010B5044690F8510058B10128F0
:101510000CD002280FD0502080F31188BFF34F8FDA
:10152000BFF36F8FFEE7206B00F0EEF92046BDE8B9
:10153000104000F0E9B910BD0F4840F6FF314207F6
:1015400005D0C01D0C4A20F00700821A891A0B4AE8
:1015500000230144C2E900030839103A21F00701D1
:1015600011604B600B600B1AC0E9001393604FF0E1
:1015700000405360D06070471804002064000020D1
:10158000144E154CA6F1C8074FF08058DFF84C9068
:1015900012E000BF00F084F9F068C568281D00F073
:1015A0002FF92069401E2061E068401EE06000F0D5
:1015B00097F92846FFF7A6FFE0680028EAD13868C7
:1015C0000128F9D9C9F80080BFF34F8FBFF36F8F9F
:1015D000F2E70000F00300201800002004ED00E016
:1015E0002DE9F0479A46DDE9098481466FF003034F
:1015F000206B03EB82021044089D20F00706700761
:1016000007D0502080F31188BFF34F8FBFF36F8F47
:10161000FEE723180A5C83F834200A5C12B1401CF0
:101620001028F6D3002784F84370072D00D3062531
:10163000E562C4E91157201D00F00BF904F1180010
:1016400000F007F92461C5F107006462A061E76456
:1016500084F8507052464946304600F0BFF820608A
:10166000B8F1000F01D0C8F80040BDE8F0870000D5
:1016700030B5114900E011460A688242FBD34B683D
:101680005C18844203D140681844486008464368A7
:101690001C18944209D1084C103C2468A24209D07D
:1016A00052681A4442600A6812680260814200D09F
:1016B000086030BD0460F9E7640000200648416816
:1016C000096829B14168C968C968496801637047F8
:1016D0004FF0FF31FAE7000018000020084840688A
:1016E000401C4FF0500080F3118804D0BFF34F8F9F
:1016F000BFF36F8FFEE7BFF34F8FBFF36F8FFEE730
:101700006C0000202DE9F0410546002700F098F913
:10171000314E306808B9FFF70FFFF06805424BD132
:10172000C5B3083568070ED005F00700C0F1080002
:101730000544680707D0502080F31188BFF34F8F0E
:10174000BFF36F8FFEE72DB37068854234D822480F
:10175000103001460C6801E020460C466168A94241
:1017600002D221680029F7D131688C4224D0076861
:101770002168016060680837411B10290FD9601982
:10178000420708D0502080F31188BFF34F8FBFF37A
:101790006F8FFEE710E041606560FFF769FF6168E9
:1017A0007068401A7060B268904200D2B060F06811
:1017B00001430020C4E9000100F0ACFA780707D02B
:1017C000502080F31188BFF34F8FBFF36F8FFEE778
:1017D0003846BDE8F08100005400002010B5031F1A
:1017E0004FF080741C601B1F21F001011960191F4C
:1017F000024B0B60143940380A6010BDDD1600083A
:10180000D0E9013201699A60D0E901235A604A683F
:10181000824201D182684A60002202610868401E4B
:101820000860086870470000034B036003F1540030
:1018300008608020106070477C00002000F10801E3
:101840004FF0FF32C0E90112C16001610021016067
:10185000704700210161704730B50B685A1C02D0F7
:1018600000F1080202E0026904E02246546825689B
:101870009D42FAD953684B6099608A605160086153
:101880000168491C016030BD42684A6093688B6002
:1018900093685960916008610168491C0160704754
:1018A000502080F31188BFF34F8FBFF36F8F0A4929
:1018B0004868401C486001280CD10848006810F0B6
:1018C000FF0F07D0502080F31188BFF34F8FBFF375
:1018D0006F8FFEE7704700006C00002004ED00E011
:1018E0000849486828B1401E486001D180F311883A
:1018F0007047502080F31188BFF34F8FBFF36F8F75
:10190000FEE700006C00002070B5002827D0144DC1
:10191000A0F108046168E868014207D1502080F313
:101920001188BFF34F8FBFF36F8FFEE722683AB184
:10193000502080F31188BFF34F8FBFF36F8FFEE706
:101940008143616000F07CF8606869680844686001
:101950002046FFF78DFEBDE8704000F0DBB970BD9A
:10196000540000204FF0E020002101618161054911
:101970004FF47A720968B1FBF2F1491E4161072107
:10198000016170471400002010B5020014D00F4808
:10199000806B38B1502080F31188BFF34F8FBFF3B5
:1019A0006F8FFEE700F04CF800211046FFF70AFDAC
:1019B00000F0B0F9002807D105494FF080500860C9
:1019C000BFF34F8FBFF36F8F10BD000018000020D2
:1019D00004ED00E010B586B00024039405AA04A924
:1019E00003A80494FFF720FFDDE903010094CDE98B
:1019F000011000230EA11048059A00F0EEF80F49DF
:101A00000028486311D0502080F31188BFF34F8F16
:101A1000BFF36F8F4FF0FF3008630120C8614C6146
:101A200006B0BDE8104000F041B806B010BD00009F
:101A300049444C45000000008115000818000020B2
:101A40000248816B491C8163704700001800002028
:101A50001448816B11B1012141627047002141623C
:101A60008169B1FA81F1C1F11F0101EB81020E49D7
:101A700051F822306BB101EB820101F108034A6891
:101A800052684A609A4201D152684A60D168016046
:101A90007047502080F31188BFF34F8FBFF36F8FD3
:101AA000FEE7000018000020280300201CB526498E
:101AB00008780190FF20087008788DF800009DF8E4
:101AC00000009DF8002000F0F000904207D0502068
:101AD00080F31188BFF34F8FBFF36F8FFEE79DF840
:101AE00000001A4B00F0500018700720986005E0C5
:101AF0009DF8002052008DF80020401E9DF8002027
:101B00001206F5D49860032807D0502080F311887E
:101B1000BFF34F8FBFF36F8FFEE74FF440709860B5
:101B2000019808700A48016841F470010160016879
:101B300041F070410160FFF715FF00205860FEF78B
:101B400057FB00201CBD000000E400E06C000020FA
:101B500020ED00E010B5502080F31188BFF34F8FC7
:101B6000BFF36F8F00F072F818B104494FF0805046
:101B70000860002080F3118810BD000004ED00E033
:101B80002DE9FF5F8346DDE90E87994616468A46B2
:101B90009000FFF7B7FD05001CD05420FFF7B2FD01
:101BA000040014D00020256384F85100CDE90240E0
:101BB000CDE900874B46324651465846FFF710FDA7
:101BC0002046FFF737FC012004B0BDE8F09F28460F
:101BD000FFF79AFE4FF0FF30F6E7F0B585B0DDE98C
:101BE0000B640A9DA6B1DCB1542700972663022638
:101BF00084F85160002604AFCDE90246CDE90057D4
:101C0000FFF7EEFC2046FFF715FC049805B0F0BD89
:101C1000502080F31188BFF34F8FBFF36F8FFEE723
:101C2000502080F31188BFF34F8FBFF36F8FFEE713
:101C30000548C16919B1806B18B1002070470120B7
:101C40007047022070470000180000202DE9F04185
:101C50002E4C0027A06B40B1206A401C2062606AB5
:101C600000B101273846BDE8F0816669761C6661DF
:101C700013D16068006838B1502080F31188BFF339
:101C80004F8FBFF36F8FFEE76068A1686160A0604F
:101C9000A06A401CA062FFF711FD206BDFF8708086
:101CA000864209D36068006880B16068C068C56812
:101CB000686886420DD220632068C06A00EB80010C
:101CC00058F821000128CAD90127C8E74FF0FF3092
:101CD000F1E7281DFFF794FDA86A18B105F1180077
:101CE000FFF78EFDE86A0121A26981401143A161DD
:101CF00000EB800108EB8100291DFFF7C5FDE86AB4
:101D00002168C96A8842CDD30127CBE7180000209B
:101D1000280300202DE9F0472C4D00242746A86B0E
:101D200038B1FFF7BDFDA86B401EA863A86B40B19A
:101D300046E0502080F31188BFF34F8FBFF36F8FC1
:101D4000FEE72969224E0120D1B3A6F1B4098046ED
:101D50003068E8B1F068C46804F11800FFF750FD7E
:101D6000201DFFF74DFDE06AAA6908FA00F1114352
:101D7000A96100EB800109EB8100211DFFF784FDC3
:101D8000E06A2968C96A8842E2D3C5F82480DFE79F
:101D90000CB1FFF793FC2C6A44B14646FFF756FF9F
:101DA00000B16E62641EF9D100202862686A38B101
:101DB0000849012738070860BFF34F8FBFF36F8FC3
:101DC000FFF78EFD3846BDE8F087000018000020C0
:101DD000DC03002004ED00E0C82F00081511000806
:101DE00000000000000000000A00000000000000E9
:101DF00000000000C42F0008950E0008000000003D
:101E000000000000200000000000000000000000B2
:101E1000000000000000000001020304060708099A
:101E200000000000000000000000000000000000B2
:101E300000007E81A58181A59981817E000000003E
:101E400000007EFFDBFFFFDBE7FFFF7E00000000FE
:101E5000000000006CFEFEFEFE7C3810000000005A
:101E60000000000010387CFE7C38100000000000EC
:101E7000000000183C3CE7E7E718183C00000000B1
:101E8000000000183C7EFFFF7E18183C0000000098
:101E9000000000000000183C3C180000000000009A
:101EA000FFFFFFFFFFFFE7C3C3E7FFFFFFFFFFFFEA
:101EB00000000000003C664242663C00000000005A
:101EC000FFFFFFFFFFC399BDBD99C3FFFFFFFFFFEA
:101ED00000001E060E1A78CCCCCCCC780000000096
:101EE00000003C666666663C187E1818000000001C
:101EF00000003F333F3030303070F0E00000000031
:101F000000007F637F6363636367E7E6C0000000F0
:101F10000000001818DB3CE73CDB1818000000004C
:101F20000080C0E0F0F8FEF8F0E0C08000000000A3
:101F30000002060E1E3EFE3E1E0E060200000000BF
:101F40000000183C7E1818187E3C180000000000A5
:101F500000006666666666666600666600000000EB
:101F600000007FDBDBDB7B1B1B1B1B1B000000005F
:101F7000007CC660386CC6C66C380CC67C0000009D
:101F80000000000000000000FEFEFEFE0000000059
:101F90000000183C7E1818187E3C187E00000000D7
:101FA0000000183C7E1818181818181800000000B7
:101FB0000000181818181818187E3C1800000000A7
:101FC0000000000000180CFE0C18000000000000CB
:101FD00000000000003060FE6030000000000000E3
:101FE000000000000000C0C0C0FE000000000000B3
:101FF0000000000000286CFE6C28000000000000BB
:10200000000000001038387C7CFEFE00000000005C
:1020100000000000FEFE7C7C38381000000000004C
:1020200000000000000000000000000000000000B0
:102030000000183C3C3C181818001818000000005C
:10204000006666662400000000000000000000003A
:102050000000006C6CFE6C6C6CFE6C6C0000000090
:1020600018187CC6C2C07C060686C67C18180000FC
:1020700000000000C2C60C183060C68600000000D8
:102080000000386C6C3876DCCCCCCC7600000000DC
:102090000030303060000000000000000000000050
:1020A00000000C18303030303030180C00000000C8
:1020B000000030180C0C0C0C0C0C18300000000048
:1020C0000000000000663CFF3C66000000000000CD
:1020D000000000000018187E181800000000000022
:1020E0000000000000000000001818183000000078
:1020F00000000000000000FE0000000000000000E2
:10210000000000000000000000001818000000009F
:102110000000000002060C183060C08000000000C3
:102120000000386CC6C6D6D6C6C66C3800000000A3
:1021300000001838781818181818187E00000000C9
:1021400000007CC6060C183060C0C6FE000000000F
:1021500000007CC606063C060606C67C00000000A1
:1021600000000C1C3C6CCCFE0C0C0C1E0000000093
:102170000000FEC0C0C0FC060606C67C00000000D1
:1021800000003860C0C0FCC6C6C6C67C00000000A7
:102190000000FEC606060C1830303030000000008B
:1021A00000007CC6C6C67CC6C6C6C67C0000000051
:1021B00000007CC6C6C67E0606060C78000000003D
:1021C00000000000181800000018180000000000AF
:1021D000000000001818000000181830000000006F
:1021E000000000060C18306030180C0600000000DB
:1021F00000000000007E00007E00000000000000E3
:102200000000006030180C060C1830600000000060
:1022100000007CC6C60C1818180018180000000032
:102220000000007CC6C6DEDEDEDCC07C00000000F4
:10223000000010386CC6C6FEC6C6C6C60000000048
:102240000000FC6666667C66666666FC0000000050
:1022500000003C66C2C0C0C0C0C2663C00000000B6
:102260000000F86C6666666666666CF80000000042
:102270000000FE6662687868606266FE000000002A
:102280000000FE6662687868606060F00000000030
:1022900000003C66C2C0C0DEC6C6663A0000000050
:1022A0000000C6C6C6C6FEC6C6C6C6C6000000003A
:1022B00000003C18181818181818183C00000000E6
:1022C00000001E0C0C0C0C0CCCCCCC7800000000D8
:1022D0000000E666666C78786C6666E600000000D2
:1022E0000000F06060606060606266FE00000000F8
:1022F0000000C6EEFEFED6C6C6C6C6C6000000007A
:102300000000C6E6F6FEDECEC6C6C6C60000000069
:1023100000007CC6C6C6C6C6C6C6C67C0000000095
:102320000000FC6666667C60606060F00000000093
:1023300000007CC6C6C6C6C6C6D6DE7C0C0E000033
:102340000000FC6666667C6C666666E6000000005F
:1023500000007CC6C660380C06C6C67C00000000C3
:1023600000007E7E5A1818181818183C000000004B
:102370000000C6C6C6C6C6C6C6C6C67C00000000EB
:102380000000C6C6C6C6C6C6C66C3810000000002F
:102390000000C6C6C6C6D6D6D6FEEE6C000000004B
:1023A0000000C6C66C7C38387C6CC6C600000000D5
:1023B0000000666666663C181818183C00000000AD
:1023C0000000FEC6860C183060C2C6FE0000000089
:1023D00000003C30303030303030303C0000000005
:1023E00000000080C0E070381C0E060200000000F3
:1023F00000003C0C0C0C0C0C0C0C0C3C0000000005
:1024000010386CC600000000000000000000000052
:1024100000000000000000000000000000FF0000BD
:102420003030180000000000000000000000000034
:102430000000000000780C7CCCCCCC7600000000C2
:102440000000E06060786C666666667C00000000F4
:1024500000000000007CC6C0C0C0C67C00000000B8
:1024600000001C0C0C3C6CCCCCCCCC7600000000EA
:1024700000000000007CC6FEC0C0C67C000000005A
:102480000000386C6460F060606060F00000000084
:10249000000000000076CCCCCCCCCC7C0CCC7800FE
:1024A0000000E060606C7666666666E6000000002C
:1024B00000001818003818181818183C0000000000
:1024C00000000606000E06060606060666663C00C6
:1024D0000000E06060666C78786C66E600000000E2
:1024E00000003818181818181818183C00000000B8
:1024F0000000000000ECFED6D6D6D6C600000000D4
:102500000000000000DC666666666666000000008B
:1025100000000000007CC6C6C6C6C67C00000000E5
:102520000000000000DC66666666667C6060F000A5
:10253000000000000076CCCCCCCCCC7C0C0C1E0077
:102540000000000000DC7666606060F000000000C3
:1025500000000000007CC660380CC67C0000000053
:102560000000103030FC30303030361C00000000ED
:102570000000000000CCCCCCCCCCCC76000000001D
:10258000000000000066666666663C1800000000F9
:102590000000000000C6C6D6D6D6FE6C00000000C3
:1025A0000000000000C66C3838386CC6000000001F
:1025B0000000000000C6C6C6C6C6C67E060CF800EF
:1025C0000000000000FECC183060C6FE00000000D5
:1025D00000000E18181870181818180E00000000C7
:1025E0000000181818180018181818180000000013
:1025F0000000701818180E18181818700000000045
:10260000000076DC00000000000000000000000078
:102610000000000010386CC6C6C6FE0000000000B6
:1026200000003C66C2C0C0C0C2663C0C067C000014
:102630000000CC0000CCCCCCCCCCCC760000000090
:10264000000C1830007CC6FEC0C0C67C0000000034
:102650000010386C00780C7CCCCCCC7600000000EC
:102660000000CC0000780C7CCCCCCC7600000000C4
:102670000060301800780C7CCCCCCC7600000000D8
:1026800000386C3800780C7CCCCCCC760000000094
:10269000000000003C666060663C0C063C000000E8
:1026A0000010386C007CC6FEC0C0C67C0000000074
:1026B0000000C600007CC6FEC0C0C67C0000000052
:1026C00000603018007CC6FEC0C0C67C0000000060
:1026D00000006600003818181818183C00000000A8
:1026E00000183C66003818181818183C0000000044
:1026F00000603018003818181818183C0000000046
:1027000000C60010386CC6C6FEC6C6C60000000073
:10271000386C3800386CC6C6FEC6C6C6000000005D
:1027200018306000FE66607C606066FE000000009D
:102730000000000000CC76367ED8D86E0000000085
:1027400000003E6CCCCCFECCCCCCCCCE000000004B
:102750000010386C007CC6C6C6C6C67C00000000EF
:102760000000C600007CC6C6C6C6C67C00000000CD
:1027700000603018007CC6C6C6C6C67C00000000DB
:10278000003078CC00CCCCCCCCCCCC760000000097
:102790000060301800CCCCCCCCCCCC760000000053
:1027A0000000C60000C6C6C6C6C6C67E060C7800B7
:1027B00000C6007CC6C6C6C6C6C6C67C00000000F1
:1027C00000C600C6C6C6C6C6C6C6C67C0000000097
:1027D0000018183C66606060663C18180000000035
:1027E00000386C6460F060606060E6FC000000002F
:1027F000000066663C187E187E181818000000005D
:1028000000F8CCCCF8C4CCDECCCCCCC600000000A8
:10281000000E1B1818187E1818181818D870000009
:102820000018306000780C7CCCCCCC760000000026
:10283000000C1830003818181818183C0000000058
:1028400000183060007CC6C6C6C6C67C000000000A
:102850000018306000CCCCCCCCCCCC760000000092
:10286000000076DC00DC66666666666600000000D6
:1028700076DC00C6E6F6FEDECEC6C6C60000000068
:10288000003C6C6C3E007E00000000000000000078
:1028900000386C6C38007C00000000000000000074
:1028A0000000303000303060C0C6C67C0000000040
:1028B000000000000000FEC0C0C0C000000000001A
:1028C000000000000000FE060606060000000000F2
:1028D00000C0C0C2C6CC183060DC860C183E0000B8
:1028E00000C0C0C2C6CC183066CE9E3E06060000B0
:1028F00000001818001818183C3C3C180000000094
:102900000000000000366CD86C36000000000000AB
:102910000000000000D86C366CD8000000000000F9
:1029200011441144114411441144114411441144FF
:1029300055AA55AA55AA55AA55AA55AA55AA55AA9F
:10294000DD77DD77DD77DD77DD77DD77DD77DD77E7
:1029500018181818181818181818181818181818F7
:1029600018181818181818F8181818181818181807
:102970001818181818F818F8181818181818181817
:1029800036363636363636F6363636363636363627
:1029900000000000000000FE363636363636363689
:1029A0000000000000F818F818181818181818185F
:1029B0003636363636F606F6363636363636363667
:1029C00036363636363636363636363636363636A7
:1029D0000000000000FE06F636363636363636364D
:1029E0003636363636F606FE0000000000000000DF
:1029F00036363636363636FE00000000000000005F
:102A00001818181818F818F8000000000000000046
:102A100000000000000000F81818181818181818FE
:102A2000181818181818181F0000000000000000DF
:102A300018181818181818FF0000000000000000EF
:102A400000000000000000FF1818181818181818C7
:102A5000181818181818181F1818181818181818EF
:102A600000000000000000FF000000000000000067
:102A700018181818181818FF1818181818181818EF
:102A800018181818181F181F1818181818181818B8
:102A900036363636363636373636363636363636D5
:102AA000363636363637303F000000000000000072
:102AB00000000000003F30373636363636363636C0
:102AC0003636363636F700FF000000000000000002
:102AD0000000000000FF00F7363636363636363650
:102AE000363636363637303736363636363636368A
:102AF0000000000000FF00FF0000000000000000D8
:102B00003636363636F700F7363636363636363619
:102B10001818181818FF00FF00000000000000003F
:102B200036363636363636FF00000000000000002C
:102B30000000000000FF00FF1818181818181818D7
:102B400000000000000000FF3636363636363636D6
:102B5000363636363636363F0000000000000000BC
:102B600018181818181F181F000000000000000097
:102B700000000000001F181F18181818181818183F
:102B8000000000000000003F363636363636363656
:102B900036363636363636FF36363636363636360C
:102BA0001818181818FF18FF1818181818181818D7
:102BB00018181818181818F8000000000000000075
:102BC000000000000000001F181818181818181826
:102BD000FFFFFFFFFFFFFFFFFFFFFFFFFFFFFFFF05
:102BE00000000000000000FFFFFFFFFFFFFFFFFFEE
:102BF000F0F0F0F0F0F0F0F0F0F0F0F0F0F0F0F0D5
:102C00000F0F0F0F0F0F0F0F0F0F0F0F0F0F0F0FD4
:102C1000FFFFFFFFFFFFFF000000000000000000BB
:102C2000000000000076DCD8D8D8DC760000000078
:102C3000000078CCCCCCD8CCC6C6C6CC00000000F6
:102C40000000FEC6C6C0C0C0C0C0C0C000000000BA
:102C500000000000FE6C6C6C6C6C6C6C0000000082
:102C6000000000FEC66030183060C6FE00000000A4
:102C700000000000007ED8D8D8D8D870000000002E
:102C80000000000066666666667C6060C00000004A
:102C90000000000076DC1818181818180000000052
:102CA0000000007E183C6666663C187E000000004E
:102CB000000000386CC6C6FEC6C66C3800000000B6
:102CC0000000386CC6C6C66C6C6C6CEE0000000070
:102CD00000001E30180C3E666666663C0000000070
:102CE00000000000007EDBDBDB7E00000000000057
:102CF00000000003067EDBDBF37E60C00000000006
:102D000000001C3060607C606060301C00000000CF
:102D10000000007CC6C6C6C6C6C6C6C60000000007
:102D200000000000FE0000FE0000FE0000000000A9
:102D30000000000018187E18180000FF00000000B6
:102D400000000030180C060C1830007E0000000057
:102D50000000000C18306030180C007E00000000ED
:102D600000000E1B1B181818181818181818181817
:102D70001818181818181818D8D8D870000000009B
:102D8000000000001818007E001818000000000065
:102D9000000000000076DC0076DC0000000000008F
:102DA00000386C6C380000000000000000000000DB
:102DB00000000000000000181800000000000000E3
:102DC00000000000000000001800000000000000EB
:102DD000000F0C0C0C0C0CEC6C6C3C1C000000008C
:102DE00000D86C6C6C6C6C000000000000000000EF
:102DF0000070D83060C8F80000000000000000003B
:102E0000000000007C7C7C7C7C7C7C00000000005E
:102E100000000000000000000000000000000000B2
:102E2000019600000000000000000000000000000B
:102E300000000011960000000000000000000000EB
:102E4000000000000000B10003012C2D0000000074
:102E5000000000000000000000B20003012C2D0063
:102E6000000000000000000000000000B3000601A8
:102E70002C2D012C2D00000000000000000000B4EB
:102E8000000107000000000000000000000000003A
:102E90000000C00003A20284000000000000000047
:102EA0000000000000C10001C5000000000000009B
:102EB0000000000000000000C200020A0000000044
:102EC0000000000000000000000000C300028A2A89
:102ED0000000000000000000000000000000C4002E
:102EE000028AEE0000000000000000000000000068
:102EF00000C500010E0000000000000000000000FE
:102F000000000000200000000000000000000000A1
:102F1000000000000000003600000000000000007B
:102F2000000000000000000000003A000105000061
:102F3000000000000000000000000000002A000463
:102F400000020081000000000000000000000000FE
:102F50002B0004000100A0000000000000000000A1
:102F6000000000E00010021C07123732292D29252D
:102F70002B3900010310E10010031D07062E2C2938
:102F80002D2E2E373F0000021029640000000000A3
:102F9000000000000000000000000000130A000014
:102FA0000000000000000000000000000000000021
:102FB0000000000000000000000000000000000011
:102FC000000000004C45440064656661756C7454F3
:102FD00061736B00F42F0008000000207C000000EB
:102FE0006C010008703000087C000020FCB5000077
:102FF000880100080000000000000000010000003F
:1030000010000000000000000024F4000000000098
:1030100000000000000000000000000000000000B0
:1030200000000000000000000000000000000000A0
:103030000000000000000000000000000000000090
:103040000000000000000000000000000000000080
:103050000000000000000000000000000000000070
:1030600000000000AAAAAAAA00000000F0000000C8
:0400000508000131BD
:00000001FF
