:020000040800F2
:1000000018B700206D020008BF170008431500084C
:10001000BD170008A7060008191900080000000015
:10002000000000000000000000000000D5010008F2
:10003000050700080000000019020008A1180008C8
:10004000870200088702000887020008870200086C
:10005000870200088702000887020008870200085C
:1000600087020008070700080D070008870200083C
:10007000ED060008F906000887020008870200085C
:10008000870200088702000887020008870200082C
:10009000870200088702000887020008870200081C
:1000A000870200088702000887020008870200080C
:1000B00087020008870200088702000887020008FC
:1000C00087020008870200088702000887020008EC
:1000D00087020008870200088702000887020008DC
:1000E00087020008870200088702000887020008CC
:1000F00087020008870200088702000887020008BC
:1001000087020008870200088702000887020008AB
:10011000870200088702000887020008870200089B
:10012000870200088702000887020008870200088B
:1001300000F002F800F03FF80AA090E8000C8244BA
:100140008344AAF10107DA4501D100F034F8AFF297
:10015000090EBAE80F0013F0010F18BFFB1A43F0A5
:1001600001031847603F0000803F0000103A24BFA1
:1001700078C878C1FAD8520724BF30C830C144BF0C
:1001800004680C607047000000230024002500264E
:10019000103A28BF78C1FBD8520728BF30C148BFEA
:1001A0000B607047642900F09580002070471FB5F0
:1001B0001FBD10B510BD00F03CFA1146FFF7F7FF68
:1001C00001F09EFC00F05AFA03B4FFF7F2FF03BC03
:1001D00000F062FA224B19680868B0E8F00F80F36B
:1001E0000988BFF36F8F4FF0000080F311884EF045
:1001F0000D0E70470000000006480068006880F39C
:10020000088862B661B6BFF34F8FBFF36F8F00DF10
:1002100000BF00BF08ED00E0EFF30980BFF36F8F70
:100220000F4B1A6820E9F00F106008B54FF050002E
:1002300080F31188BFF34F8FBFF36F8F02F02CF95B
:100240004FF0000080F31188BDE808401968086885
:10025000B0E8F00F80F30988BFF36F8F704700BFDD
:1002600020000020EFF30580704700000948804718
:1002700009480047FEE7FEE7FEE7FEE7FEE7FEE788
:10028000FEE7FEE7FEE7FEE704480549054A064BA0
:1002900070470000171900083101000818B100204C
:1002A00018B7002018B3002018B300200FB41CB5F5
:1002B000074B06AA7B4469460090059800F0A1F917
:1002C0000020694600F0B0F91CBC5DF814FB00008A
:1002D000710300002DE9F0410646002410687529DD
:1002E000314616A510D0AFF30080002802DA404254
:1002F00013A507E031688A0701D512A502E0490776
:1003000004D511A5012401E0AFF3008000210A22E9
:1003100006F1240709E0B0FBF2FCB0FBF2F302FBAC
:100320001C00303078541846491C0028F3D123466D
:100330002A463046BDE8F04100F005B90000000053
:100340002D0000002B000000200000002DE9F041EE
:100350000F460546002028622846E968884770B3A2
:10036000252805D0D5E901219047286A401CF2E7ED
:10037000E9682846002688476C2804460AD0682C7D
:1003800008D04C2C35D06A2C31D0742C31D07A2C3A
:100390002FD016E0E968064628468847B042044652
:1003A00008D16C2E23D04FF480662846E968884730
:1003B000044606E06C2E03D04FF4807601E01EE088
:1003C0004026E4B1A4F14100192802D8203446F4B3
:1003D00000663A46214628462E60FFF7E3FE60B1EC
:1003E000012808D0FF1D27F007070837B4E780264B
:1003F000DBE70026D9E73F1DAEE72046B2E7286AD3
:10040000BDE8F081032A40F2308010F0030C00F0C8
:10041000158011F8013BBCF1020F624498BF11F83E
:1004200001CB00F8013B38BF11F8013BA2F10402F7
:1004300098BF00F801CB38BF00F8013B11F003036F
:1004400000F02580083AC0F0088051F8043B083AD3
:1004500051F804CBA0E80810F5E7121D5CBF51F875
:10046000043B40F8043BAFF30080D20724BF11F8EF
:10047000013B11F801CB48BF11F8012B24BF00F854
:10048000013B00F801CB48BF00F8012B704710B5C5
:10049000203AC0F00B80B1E81850203AA0E818507C
:1004A000B1E81850A0E81850BFF4F5AF5FEA027C3D
:1004B00024BFB1E81850A0E8185044BF18C918C0AC
:1004C000BDE810405FEA827C24BF51F8043B40F84D
:1004D000043B08BF7047D20728BF31F8023B48BF32
:1004E00011F8012B28BF20F8023B48BF00F8012B70
:1004F00070474FF0000200B51346944696462039E7
:1005000022BFA0E80C50A0E80C50B1F12001BFF4CC
:10051000F7AF090728BFA0E80C5048BF0CC05DF832
:1005200004EB890028BF40F8042B08BF704748BF80
:1005300020F8022B11F0804F18BF00F8012B7047F4
:100540007047704770472DE9F0470D46994692462F
:10055000044600F124080168880604D5E06921F00A
:100560001001216000E00120A84201DD471B00E0EE
:100570000027A1697A1902EB0900081AA061207806
:10058000C00602D42046AFF30080002608E0D4E97C
:1005900001211AF806009047206A401C761C206250
:1005A0004E45F4DB2078C0060AD52046AFF3008024
:1005B00006E0D4E9012130209047206A401C2062E7
:1005C000381EA7F10107F4DC07E0D4E9012118F88F
:1005D00005009047206A401C2062281EA5F10105F5
:1005E000F3DC2046AFF300802078000602D502201D
:1005F000BDE8F0870120FBE701694A1C0261087829
:10060000704700B58FB0CDE9013100210591054952
:100610007944CDE9031011466846FFF797FE0FB005
:1006200000BD0000E5FFFFFF0A6802F8010B0A6049
:100630007047754600F02CF8AE46050069465346F3
:1006400020F00700854618B020B5FFF71DFEBDE875
:1006500020404FF000064FF000074FF000084FF029
:10066000000B21F00701AC46ACE8C009ACE8C009BA
:10067000ACE8C009ACE8C0098D46704710B5044627
:10068000AFF300802046BDE81040FFF79DBD00009D
:1006900000487047B8B0002001491820ABBEFEE703
:1006A000260002007047FEE70D4D0E4C0E4F4FF036
:1006B000FF363146686802F0EDF8032001F00EFEC7
:1006C0000821204600F0B0FA0028F2D12021384657
:1006D00000F0AFFA01220821204600F0B2FAE8E764
:1006E0008000002000180140000C0140014800F08B
:1006F00013B8000084030020014800F00DB800008A
:10070000400300207047082000F086B9102000F058
:1007100083B972B6FEE700002DE9F05FC16B0A688D
:1007200001680B68046C4FF0040808FA04F8844D63
:10073000844E854FDFF814C2DFF81492DFF814A25C
:10074000DFF814B2DFF814E218EA020F65D05FEAAE
:10075000437862D50A68920603D40A6822F004023C
:100760000A60DFF8F0814FF48062016808F1140834
:1007700013011402414524D9A9420DD0B1420FD032
:10078000B9421AD0614515D0494515D0514501D11E
:10079000120312E0594501D104220EE0714501D146
:1007A00040220AE06D4D1435A94206D06B4A28322A
:1007B000914201D11A4600E022466749091F0A60AA
:1007C00029E0A94213D0B14215D0B94220D06145E9
:1007D0001BD049451BD0514502D14FF4800217E090
:1007E000414502D14FF0806212E0594501D1042207
:1007F0000EE0714501D140220AE0584D1435A9425E
:1008000006D0564A2832914201D11A4600E02246CB
:100810004B4908394A60C16A71E04FF0020808FA92
:1008200004F818EA020F70D05FEA83786DD50A6881
:10083000920606D40A6822F00A020A60012180F8B2
:100840002110DFF810814FF40072016808F11408DC
:1008500013011402414524D9A9420DD0B1420FD051
:10086000B9421AD0614515D0494515D0514501D13D
:10087000120312E0594501D102220EE0714501D167
:1008800020220AE0354D1435A94206D0334A2832D9
:10089000914201D11A4600E022462F49091F0A6001
:1008A00029E0A94213D0B14215D0B94220D0614508
:1008B0001BD049451BD0514502D14FF4001217E01F
:1008C000414502D14FF0007212E0594501D1022298
:1008D0000EE0714501D120220AE0204D1435A942D5
:1008E00006D01E4A2832914201D11A4600E0224623
:1008F000134908394A60002180F82010816A0029D4
:100900001CD0BDE8F05F0847FFE70825A540154269
:1009100014D01A0712D50A6822F00E020A6090F865
:100920004020C36B012101FA02F25A60816380F812
:100930002110002180F82010016BE0E7BDE8F09F56
:10094000080002401C000240300002404400024007
:10095000580002406C000240080402401C0402409F
:1009600030B560B11A4B026814219A4209D2194B72
:100970001344B3FBF1F18900016417490AE0012037
:1009800030BD134B5B421344B3FBF1F189000164AA
:100990000F490839C163022180F82110136843F61A
:1009A000F0718B43F0E901142143D0E902452C4357
:1009B0002143046921434469214384692143194344
:1009C000116000214163012242770177084630BD62
:1009D00008040240F8FFFDBF0000024070B5044665
:1009E00000F034F90546601C02D004480078044445
:1009F00000F02CF9401BA042FAD370BD100000207B
:100A0000044A00210828116003D11146506801F002
:100A1000F3BE704780000020044910B50A68024206
:100A200002D00860FFF7ECFF10BD00001404014085
:100A30002DE9F84FDFF8C891002409F1040A0AF102
:100A4000040B23460F270BF1040ED1E00125A5402E
:100A500006EA0502AA4276D1DFF8A8C14E68A6EBE5
:100A60000C0866452BD00DDC032E34D005DC36B3E4
:100A7000012E19D0022E2FD11BE0112E16D0122ECE
:100A80002AD119E0B8F5881F19D006DCB8F5803FE7
:100A900015D0B8F5801F1FD111E0B8F5001F0ED09A
:100AA000B8F5041F18D10AE0CB6815E0CB681B1D10
:100AB00012E0CB6808330FE0CB680C330CE08B6896
:100AC0002BB1012B4FF0080303D0456104E0042350
:100AD00002E0056100E00023FF2A01D8064601E09C
:100AE00000F104064FEA840501D9A5F12005D6F8E6
:100AF000008007FA05FC28EA0C0803FA05F548EA25
:100B00000508C6F800804D68ED0070D53E4DAE6911
:100B100046F00106AE61AD6924F0030605F001055B
:100B200000953A4D06EB050CDCF80850A607360F89
:100B300007FA06F825EA0805DFF8D480404503D116
:100B40004FF0000825E052E0DFF8C880404502D1B0
:100B50004FF001081DE0DFF8C080404502D14FF0A2
:100B6000020816E0DFF8B480404502D14FF00308D8
:100B70000FE0DFF8AC80404502D14FF0040808E0F8
:100B8000DFF8A080404502D14FF0050801E04FF0AA
:100B9000060808FA06F848EA0508CCF808804D6807
:100BA000D9F80060ED034D4601D5164300E09643A9
:100BB0002E604D68DAF80060AD03554601D5164346
:100BC00000E096432E604D68DBF80060ED025D4664
:100BD00001D5164300E096432E604D68DEF80060B4
:100BE000AD02754601D5164300E096432E60641CA5
:100BF0000A681646E2407FF429AFBDE8F88F00008E
:100C000000040140000011100010024000000140EB
:100C100000080140000C0140001001400014014098
:100C200000180140001C01408068084000D00120ED
:100C30007047C26821EA02030A4043EA02410161A7
:100C400070470AB1016170470904FBE701488068F9
:100C500070470000100000200248816802781144AB
:100C60008160704710000020074810B5016841F00E
:100C700010010160032000F07BF80F2000F006F85F
:100C800000F024F8002010BD0020024070B50D4D8A
:100C900004464FF47A712878B1FBF0F00A490968EC
:100CA000B1FBF0F000F039FC48B9102C07D200225B
:100CB0002146501E00F03CF800206C6070BD012001
:100CC00070BD0000100000201C0000200F4808B577
:100CD000816941F001018161816901F001010091A7
:100CE000C16941F08051C161C069002200F08050AB
:100CF00000900F21901E00F01BF80548416821F07C
:100D0000E06141F00071416008BD00000010024048
:100D100000000140002809DB00F01F020121914082
:100D20004009800000F1E020C0F800117047000089
:100D3000F0B40E4B1B680C46C3F30223C3F1070546
:100D4000042D00D90425191D072901D2002300E034
:100D5000DB1E012606FA05F1491E214099409E40FE
:100D6000761E16403143F0BC00F0D7BD0CED00E01C
:100D7000064900F0070208684FF6FF03184040EAF2
:100D80000220034A10430860704700000CED00E0A9
:100D90000000FA052DE9F0470F46050061D0434EEB
:100DA000306800F00700B84209D2306820F0070030
:100DB00038433060306800F00700B84251D12868ED
:100DC0003B4C810712D5400703D5606840F4E060D2
:100DD00060602878000703D5606840F46050606068
:100DE0006068A96820F0F000084360602878C007B8
:100DF00028D06868012810D02168022810D08907FF
:100E000000292EDA616821F0030101436160FFF7D8
:100E10001DFF804641F288390DE021688903EFE724
:100E20008901EDE7FFF712FFA0EB0801494502D960
:100E30000320BDE8F0876068696800F00C00B0EB43
:100E4000810FEFD1306800F00700B8420BD930684D
:100E500020F0070038433060306800F00700B842E7
:100E600001D00120E5E72878400705D56068E968EA
:100E700020F4E060084360602878000706D56068C9
:100E8000296920F4605040EAC100606000F018F861
:100E90006168084AC1F30311515CC8400649086003
:100EA00006480068FFF7F2FE0020C2E7002002407B
:100EB00000100240E82E00081C0000201400002052
:100EC00012A185B00FC98DE80F0014A0144A006864
:100ED00004905168134801F00C03042B10D0082B28
:100EE0000ED1C1F38343C9031DF803000AD551682D
:100EF00004AAC1F34041515C0A4A5043B0FBF1F0EF
:100F000005B0704708494843FAE7000002030405AA
:100F1000060708090A0B0C0D0E0F10100102000045
:100F20000010024000127A0000093D002DE9F84F40
:100F3000040070D02078C04DC00749D06868C0F365
:100F40008100012807D06868C0F38100022809D118
:100F50006868C00306D52868800339D56068002812
:100F6000E7D035E06068B0F5803F0BD010B1B0F548
:100F7000A02F11D0286820F480302860286820F441
:100F8000802002E0286840F480302860606890B1DA
:100F9000FFF75CFE06460AE0286840F480202860DF
:100FA000F0E700BFFFF752FE801B642873D8286863
:100FB0008003F7D50CE0FFF749FE064605E000BFC9
:100FC000FFF744FE801B6428F0D828688003F7D41C
:100FD00020789A4E80074FF001094FF0000839D56C
:100FE000686810F00C0F07D06868C0F38100022811
:100FF00009D16868C00306D42868800714D5206921
:10100000012808D110E02069B0B1C6F80090FFF7C0
:101010001DFE074605E00AE1FFF718FEC01B022887
:10102000C4D828688007F7D52868616920F0F800DF
:1010300040EAC10028600DE0C6F80080FFF706FE18
:10104000074604E0FFF702FEC01B022823D82868E9
:101050008007F7D4207800072CD57948A169D9B149
:10106000C0F80090FFF7F2FD074604E0FFF7EEFD41
:10107000C01B02280FD8686A8007F7D571484FF463
:10108000FA510068B0FBF1F0009000BF0098411EDB
:101090000091FAD20EE080E0C0F80080FFF7D6FDA4
:1010A000074604E0FFF7D2FDC01B022875D8686A26
:1010B0008007F7D42078400760D5E8690027C00092
:1010C00008D4E86940F08050E861E869012700F041
:1010D000805000905C480168C90513D401688346BC
:1010E00041F480710160FFF7B1FD824606E000BF68
:1010F000FFF7ACFDA0EB0A0064284ED8DBF8000037
:10110000C005F5D5E06801280AD008B1052813D03C
:10111000286A20F001002862286A20F0040002E01A
:10112000286A40F001002862E06841F2883B98B1EB
:10113000FFF78CFD82460BE0286A40F0040028622D
:10114000EEE700BFFFF782FDA0EB0A0159455AD830
:10115000286A8007F6D50CE0FFF778FD824605E0A7
:10116000FFF774FDA0EB0A0159454CD8286A8007A7
:10117000F6D41FB1E86920F08050E861E06988B3D7
:101180006968C1F38101022944D00228C6F8608051
:1011900004D0FFF75BFD044638E034E0FFF756FD6E
:1011A000074604E0FFF752FDC01B02282BD8286831
:1011B0008001F7D4206AB0F5803F05D16868A16846
:1011C00020F4003008436860D4E9080108436968E6
:1011D00021F4741108436860C6F86090FFF736FD8B
:1011E000044606E025E000BFFFF730FD001B0228A3
:1011F00009D828688001F7D51BE000BFFFF726FD5E
:10120000001B022802D90320BDE8F88F286880015E
:10121000F4D40EE00128F7D06868226A00F4803127
:10122000914204D1616A00F47010884201D001201B
:10123000EAE70020E8E70000001002400000424218
:10124000800442421C0000200070004070B5040081
:1012500009D0606A002540B125616561A56294F8F6
:10126000510040B10CE0012070BD6068B0F5827F94
:10127000F4D0E561F2E784F85050204600F040F8E1
:10128000022084F851002068016821F040010160CB
:10129000A088218900F4827001F404410843A189E7
:1012A00001F400610843217C01F002010843217D23
:1012B00001F001010843218B01F400710843217FF3
:1012C00001F03801084394F8201001F08001084330
:1012D000218D01F40051084321680860A0690421B0
:1012E00001EA1040216848602068C16921F400616A
:1012F000C1616565012084F85100002070BD0000C7
:10130000F0B585B00024064600940194029403943D
:1013100000682349884241D12248816941F48051C3
:101320008161816901F480510491816941F0040176
:1013300081618069694600F004000490A02000905B
:1013400002200190032003901748FFF771FB184D0E
:101350001648802701C5102091C5154845F8104949
:101360006C61AC61EC61FFF7FBFA08B1FFF7D1F9F2
:10137000B5646E620E4D0D4844351438C5E900045D
:10138000C5E902472C616C61AC612846EC61FFF74E
:10139000E7FA08B1FFF7BDF9F5646E6205B0F0BD7C
:1013A00000300140001002400008014030000240BF
:1013B000400300202DE9F84F044690F85000002724
:1013C0001D461646894601280DD04FF0010B84F8C2
:1013D00050B0FFF73BFC804694F85100BA46012814
:1013E00004D0022793E00220BDE8F88FB9F1000F86
:1013F00073D0002E71D0032084F85100C4F854A09B
:10140000C4F83090A686E686C4F838A0A4F83CA0BC
:10141000A4F83EA0C4F844A0C4F840A0A068B0F569
:10142000004F09D12068016821F040010160206867
:10143000016841F48041016020680168490603D4D5
:10144000016841F040010160E068B0F5006F60683C
:1014500003D030B3012E24D041E008B1012E1CD1BD
:10146000206B21680088C86006E0206881688907D1
:1014700009D5216B0988C160206B801C2063E08E38
:10148000401EE08609E0FFF7E1FBA0EB0800A84260
:1014900002D3681C01D031E07DB3E08E0028E4D196
:1014A00020E0206B21680078087306E020688168DE
:1014B000890709D5216B09780173206B401C2063D3
:1014C000E08E401EE0860AE0FFF7C0FBA0EB0800BC
:1014D000A84203D3681C02D010E017E06DB1E08E83
:1014E0000028E3D142462946204600F069F908B1B8
:1014F00020206065A06818B106E0FFE7032706E03A
:101500002068C16880680090606D00B1012784F890
:1015100051B084F850A0384666E710B5401EB0F1CF
:10152000807F01D3012010BD4FF0E02460610F21C6
:10153000601700F0F2F90020A06107202061002070
:1015400010BDFEE700F098FAC82000F0C7FEF9E7EA
:10155000054C022211462068401C206000F070FA01
:10156000642000F0BBFEF4E78C0000200D4808B5B5
:10157000416941F0010141614069002200F0010030
:10158000009005210C20FFF7D3FB0C20FFF7C2FBD6
:10159000002205210D20FFF7CBFBBDE808400D2000
:1015A000FFF7B8BB0010024010B59CB00322002129
:1015B000012001F009F82149086020B100231A46F2
:1015C000194601F069F803220021012000F0FCFF18
:1015D0001B49086020B100231A46194601F05CF847
:1015E0001C2218496846FEF752FF0021684600F0A9
:1015F000AFFA154C13491C2220601C3107A8FEF7D6
:1016000046FF002107A800F0A3FA0E4960601C22E3
:1016100038310EA8FEF73BFF00210EA800F098FA23
:101620000849A0601C22543115A8FEF730FF0021A4
:1016300015A800F08DFAE0601CB010BD84000020F9
:1016400088000020782E0008000000202DE9F04FCF
:1016500085B0002440480094019402940394816969
:1016600041F040018161816901F04001049181698B
:1016700041F010018161816901F0100104918169DB
:1016800041F004018161816901F0040104918169E3
:1016900041F0080181618069DFF8C08000F0080036
:1016A0000490002220214046FFF7CBFADFF8B090EB
:1016B000002258214846FFF7C4FADFF8A8A001220B
:1016C00010215046FFF7BDFADFF89CB00022202120
:1016D0005846FFF7B6FA182000902448CDE90104D7
:1016E00069464046FFF7A4F9202702260125009706
:1016F0000396CDE9015469464046FFF799F9582011
:10170000CDE90005CDE9024669464846FFF790F964
:101710001020CDE9000569465046CDE90245FFF7A6
:1017200087F900970396CDE9015469465846FFF7BB
:101730007FF9002205210920FFF7FAFA0920FFF7B7
:10174000E9FA002205210A20FFF7F2FA0A20FFF742
:10175000E1FA05B0BDE8F08F00100240001801402A
:101760000008014000100140000C01400000211061
:10177000114810B50F4901604FF4827141604FF478
:101780000041816000210222C0E90312012242616E
:10179000520282610822C0E90721416281620A2166
:1017A000C162FFF753FD002803D0BDE81040FEF7EB
:1017B000B0BF10BD00300140E8020020FEE7FEE7A8
:1017C00038B50B46009204460022802100F008F84C
:1017D000002804D0606D40F020006065032038BD13
:1017E0002DE9F8431E46914688460446089DFFF7BA
:1017F0002DFA401B351AFFF729FA074625480068DD
:10180000C0F3CB30684338E0701C37D0FFF71EFAC6
:10181000C01BA84203D215B1009860B32CE0206829
:10182000416821F0E00141606068B0F5827F0BD132
:10183000A068B0F5004F02D0B0F5806F04D12068E9
:10184000016821F040010160A06AB0F5005F09D194
:101850002068016821F4005101602068016841F4AA
:1018600000510160012084F85100002084F85000EC
:101870000320BDE8F8830025401E009020688168A1
:1018800038EA010004D000214945BDD10020F0E72D
:101890000121F9E71C000020012000F04DF9FBE7D1
:1018A00010B5FFF7D9F901F043F9012803D0BDE8DD
:1018B000104000F073BE10BD30B58FB028216846CF
:1018C000FEF717FE14210AA8FEF713FE01210804F3
:1018D000CDE900100024029402250491CDE90750BF
:1018E0004FF4E01009906846FFF720FB08B172B68C
:1018F000FEE70F20CDE90A054FF48060CDE90C40EA
:1019000002210AA80E94FFF745FA002801D072B60A
:10191000FEE70FB030BD7047FEE70907090E00284B
:1019200004DB00F1E02080F80014704700F00F00A5
:1019300000F1E02080F8141D704700002DE9F74FFA
:101940000024DFF85080DFF8509093468A46012546
:101950000098002304EB00170BEB040618F80700AF
:10196000C3F1070105FA01F1084000D00F20A9F8E2
:1019700000000AEB0300B1B280B200F071F85B1C0A
:10198000DBB2082BEAD3641CE4B2102CE0D3BDE830
:10199000FE8F0000F82E000890000020044A00216D
:1019A0004FF4A04322F81100491C9942FAD3704722
:1019B000B810002010B51F4C012240212046FFF72F
:1019C00040F9012208212046FFF73BF90A20FFF7E2
:1019D00005F8002208212046FFF733F90A20FEF718
:1019E000FDFF012208212046FFF72BF9124C0FE0E2
:1019F00001222146002000F063F8A2781AB1E11C10
:101A0000012000F05DF8607808B1FEF7E7FF1334BD
:101A100020780028ECD1FFF7C1FF00F02DF86420FA
:101A2000FEF7DCFF0022BDE8104010210348FFF75D
:101A300008B9000000080140F83E0008001001400D
:101A40003EB514460D46024604A16846FEF72EFC3C
:101A500022462946684600F021F83EBD256C640008
:101A6000034A00EBC1100349128821F81020704787
:101A700090000020B810002008B52C208DF8000040
:101A800001226946002000F01BF84FF42042024971
:101A9000012000F015F808BDB8100020F0B5174679
:101AA0000E460546002407E0311989B23A466D1CFE
:101AB000FFF744FF0834A4B228780028F4D1F0BD21
:101AC00070B514460C4E0D46024610213046FFF705
:101AD000B8F8002240213046FFF7B3F8A2B24CF22A
:101AE000503329460548FFF765FC3046BDE8704095
:101AF00001224021FFF7A5B800080140E8020020BC
:101B0000FFF7B2F8FFF7D8FEFFF7A0FDFFF730FEB2
:101B1000FFF72CFDFFF74EFF022211460120FFF7D1
:101B20008FFFFFF741FD00F00EF8FEE701460020B1
:101B3000842900D0C81C704710B500B9012000F0FE
:101B4000CDFB002010BD10B500F068FC002010BDDA
:101B50007FB50D4604464169B0F9080081B1A1691D
:101B600071B1FFF7E3FFD4E905128DE80700D4E96E
:101B700000102B46226900F0B0FF039004B070BD46
:101B8000FFF7D4FF03A9CDE90001208A2B4682B2DA
:101B9000D4E9001000F074FF012801D00020EDE727
:101BA0000398EBE72DE9F041184C0F4605466669AE
:101BB0002068001D00F0A4FA38B9206890F82C10B5
:101BC00001208840A1698143A161681C07D137B118
:101BD0002168BDE8F0410E48091D00F0D5BA206823
:101BE0003544B5424560216805D2A068BDE8F041A2
:101BF000091D00F0B1BA6068091D00F0ADFA206B54
:101C0000854200D22563BDE8F0810000200000205D
:101C1000A40400202DE9F041054600F0C1FA2E4C45
:101C20002069401C206120682C4F10B1E06940B34E
:101C30002DE025602069012829D1002606EB8600C9
:101C400007EB800000F07AFA761C072EF6D32348C3
:101C50008C3000F073FA2148A03000F06FFA1F4872
:101C6000B43000F06BFA1D48C83000F067FA1B482A
:101C7000DC3000F063FA19488C3060601430A060EA
:101C800005E02068E96AC06A884200D82560E06AF9
:101C9000401CE062E96A0120A26988401043A0610B
:101CA00001EB810007EB8000291D00F06DFA00F0C8
:101CB00097FAE06900280CD02068E96AC06A884277
:101CC00007D207494FF080500860BFF34F8FBFF332
:101CD0006F8FBDE8F081000020000020C8030020C5
:101CE00004ED00E02DE9F041856B1746044600261F
:101CF000026C82B1C7B1E068FEF784FBE168206C3A
:101D0000091AE1602268914202D26168081AE06013
:101D1000022F16D017E02068A8B9606800F07AFF9B
:101D20000646002060600EE0A068FEF76BFB216CA9
:101D3000A0680844A0606168884204D32068A0605D
:101D400001E005B16D1E6D1CA5633046BDE8F08154
:101D500010B5044690F8510058B101280CD0022863
:101D60000FD0502080F31188BFF34F8FBFF36F8FD8
:101D7000FEE7206B00F048FA2046BDE8104000F076
:101D800043BA10BD0F4840F6FF31420705D0C01DD1
:101D90000C4A20F00700821A891A0B4A00230144DA
:101DA000C2E900030839103A21F0070111604B60C5
:101DB0000B600B1AC0E9001393604FF000405360B2
:101DC000D0607047B80400206C000020144E154C01
:101DD000A6F1C8074FF08058DFF84C9012E000BF22
:101DE00000F0DEF9F068C568281D00F089F9206967
:101DF000401E2061E068401EE06000F0F1F92846D6
:101E0000FFF7A6FFE0680028EAD138680128F9D971
:101E1000C9F80080BFF34F8FBFF36F8FF2E7000068
:101E2000900400202000002004ED00E0034600980C
:101E300029B10260C0E90F31012100F0E9BB006067
:101E4000F8E72DE9F0479A46DDE9098481466FF00D
:101E50000303206B03EB82021044089D20F0070669
:101E6000700707D0502080F31188BFF34F8FBFF366
:101E70006F8FFEE723180A5C83F834200A5C12B1E6
:101E8000401C1028F6D3002784F84370072D00D398
:101E90000625E562C4E91157201D00F05AF904F146
:101EA000180000F056F92461C5F107006462A061D2
:101EB000E76484F8507052464946304600F00EF907
:101EC0002060B8F1000F01D0C8F80040BDE8F087ED
:101ED00030B5114900E011460A688242FBD34B68D5
:101EE0005C18844203D1406818444860084643683F
:101EF0001C18944209D1084C103C2468A24209D015
:101F000052681A4442600A6812680260814200D036
:101F1000086030BD0460F9E76C00002010B504468D
:101F200000F03EF9A06B28B15FF0000400F058F912
:101F3000204610BD0124F9E706484168096829B127
:101F40004168C968C9684968016370474FF0FF314B
:101F5000FAE700002000002008484068401C4FF0CD
:101F6000500080F3118804D0BFF34F8FBFF36F8F01
:101F7000FEE7BFF34F8FBFF36F8FFEE774000020C3
:101F80002DE9F041044600F00BF994F9455004F1B5
:101F9000240609E0606A48B1304600F0D1FE08B17D
:101FA00000F0CAF96D1E6DB2002DF3DC4FF0FF3664
:101FB00084F8456000F014F900F0F2F894F9445008
:101FC00004F1100709E0206948B1384600F0B8FE76
:101FD00008B100F0B1F96D1E6DB2002DF3DC84F88C
:101FE0004460BDE8F04100F0FBB800002DE9F0418D
:101FF0000546002700F048FA314E306808B9FFF76F
:10200000C1FEF06805424BD1C5B3083568070ED054
:1020100005F00700C0F108000544680707D050200C
:1020200080F31188BFF34F8FBFF36F8FFEE72DB39F
:102030007068854234D82248103001460C6801E0AF
:1020400020460C466168A94202D221680029F7D1D6
:1020500031688C4224D007682168016060680837C5
:10206000411B10290FD96019420708D0502080F376
:102070001188BFF34F8FBFF36F8FFEE710E0416011
:102080006560FFF725FF61687068401A7060B2688C
:10209000904200D2B060F06801430020C4E9000122
:1020A00000F088FE780707D0502080F31188BFF336
:1020B0004F8FBFF36F8FFEE73846BDE8F081000019
:1020C0005C0000200449086818B10868826C521C42
:1020D00082640868704700002000002010B5031FCC
:1020E0004FF080741C601B1F21F001011960191F43
:1020F000024B0B60143940380A6010BD591F0008AC
:10210000D0E9013201699A60D0E901235A604A6836
:10211000824201D182684A60002202610868401E42
:102120000860086870470000034B036003F1540027
:1021300008608020106070479400002000F10801C2
:102140004FF0FF32C0E90112C1600161002101605E
:10215000704700210161704730B50B685A1C02D0EE
:1021600000F1080202E0026904E022465468256892
:102170009D42FAD953684B6099608A60516008614A
:102180000168491C016030BD42684A6093688B60F9
:1021900093685960916008610168491C016070474B
:1021A000502080F31188BFF34F8FBFF36F8F0A4920
:1021B0004868401C486001280CD10848006810F0AD
:1021C000FF0F07D0502080F31188BFF34F8FBFF36C
:1021D0006F8FFEE7704700007400002004ED00E000
:1021E0000849486828B1401E486001D180F3118831
:1021F0007047502080F31188BFF34F8FBFF36F8F6C
:10220000FEE700007400002070B5002827D0144DB0
:10221000A0F108046168E868014207D1502080F30A
:102220001188BFF34F8FBFF36F8FFEE722683AB17B
:10223000502080F31188BFF34F8FBFF36F8FFEE7FD
:102240008143616000F020F9606869680844686053
:102250002046FFF73DFEBDE8704000F0ABBD70BD0D
:102260005C0000204FF0E020002101618161054900
:102270004FF47A720968B1FBF2F1491E41610721FE
:10228000016170471C00002010B5FDF7EBFF1149FC
:1022900010280ED300F1E02090F8F0030A78904265
:1022A00007D2502080F31188BFF34F8FBFF36F8F99
:1022B000FEE709480068896800F4E060884207D9B1
:1022C000502080F31188BFF34F8FBFF36F8FFEE76D
:1022D00010BD0000740000200CED00E010B50200FD
:1022E00014D00F48806B38B1502080F31188BFF3B1
:1022F0004F8FBFF36F8FFEE700F0C6F80021104646
:10230000FFF750FC00F056FD002807D105494FF0BB
:1023100080500860BFF34F8FBFF36F8F10BD000078
:102320002000002004ED00E002498A6A0260496949
:102330004160704720000020014901204862704739
:102340002000002010B50C4650B109490968183129
:10235000FFF702FF2046BDE810400121FFF722BC35
:10236000502080F31188BFF34F8FBFF36F8FFEE7CC
:102370002000002070B504004BD0A26CA2B1606CAC
:10238000884200D30146E06A884242D0012A40D107
:10239000204D2A6894420FD1502080F31188BFF35A
:1023A0004F8FBFF36F8FFEE7502080F31188BFF38C
:1023B0004F8FBFF36F8FFEE7E162A269002A02DB55
:1023C000C1F10701A161144E00EB8000616906EBC9
:1023D000800081421DD1201DFFF792FE012150B9DE
:1023E000E06A00EB800256F8222022B9AA6901FABD
:1023F00000F08243AA61E06AAA6981401143A961A1
:1024000000EB800006EB8000211DBDE87040FFF767
:10241000BBBE70BD20000020C803002010B586B0F0
:102420000024039405AA04A903A80494FFF77CFEE2
:10243000DDE903010094CDE9011000230EA110484D
:10244000059A00F04AFB0F490028486311D050203C
:1024500080F31188BFF34F8FBFF36F8F4FF0FF30C2
:1024600008630120C8614C6106B0BDE8104000F06F
:1024700041B806B010BD000049444C4500000000C2
:10248000CD1D0008200000200248816B491C81639B
:1024900070470000200000201448816B11B1012119
:1024A00041627047002141628169B1FA81F1C1F155
:1024B0001F0101EB81020E4951F822306BB101EB93
:1024C000820101F108034A6852684A609A4201D1C8
:1024D00052684A60D16801607047502080F31188CB
:1024E000BFF34F8FBFF36F8FFEE700002000002087
:1024F000C80300201CB5264908780190FF20087009
:1025000008788DF800009DF800009DF8002000F08C
:10251000F000904207D0502080F31188BFF34F8F16
:10252000BFF36F8FFEE79DF800001A4B00F05000DC
:1025300018700720986005E09DF8002052008DF883
:102540000020401E9DF800201206F5D49860032854
:1025500007D0502080F31188BFF34F8FBFF36F8FE8
:10256000FEE74FF440709860019808700A480168CF
:1025700041F470010160016841F070410160FFF7B2
:1025800071FE00205860FDF737FE00201CBD0000E2
:1025900000E400E07400002020ED00E010B55020C1
:1025A00080F31188BFF34F8FBFF36F8F00F0CEFA27
:1025B00018B104494FF080500860002080F3118862
:1025C00010BD000004ED00E0F8B517460E4605000A
:1025D00014D0DEB105FB06F04830FFF707FD04001C
:1025E0000AD0002084F8460004F148023B463146F8
:1025F00028460094FFF71AFC2046F8BD502080F3CF
:102600001188BFF34F8FBFF36F8FFEE70020E3E722
:1026100070B50D46040025D0FFF7C2FDD4E90F20A8
:10262000216802FB001161600021A1632168A160A3
:102630000A46D4E90F01401E00FB0121E16021465A
:102640004FF0FF3001F8440F487004F110008DB1D5
:10265000FFF774FD04F12400FFF770FDFFF7C0FDE4
:10266000012070BD502080F31188BFF34F8FBFF35E
:102670006F8FFEE721690029F0D000F061FB002890
:10268000ECD004494FF080500860BFF34F8FBFF388
:102690006F8FE3E704ED00E02DE9FF4782B01D46B0
:1026A0008A464FF00008040003D0BAF1000F08D0AA
:1026B00011E0502080F31188BFF34F8FBFF36F8F6D
:1026C000FEE7206C38B1502080F31188BFF34F8FA4
:1026D000BFF36F8FFEE7022D0AD1E06B012807D010
:1026E000502080F31188BFF34F8FBFF36F8FFEE749
:1026F00000F01EFA3F4F4FF000094FF0805648B9E6
:10270000049838B1502080F31188BFF34F8FBFF386
:102710006F8FFEE7FFF744FDA06BE16B884207D3A4
:10272000022D05D00498D0B1B8F1000F1AD01EE0E8
:102730002A4651462046FFF7D5FA616A19B104F1DD
:10274000240000F0FDFA20B13E60BFF34F8FBFF3CD
:102750006F8FFFF745FD012006B0BDE8F087FFF75A
:102760003FFD22E06846FFF7DFFD4FF00108FFF76D
:1027700037FDFFF789FEFFF713FD94F94400401C75
:1027800001D184F8449094F94500401C01D184F8AB
:102790004590FFF725FD04A9684600F037F930B1F0
:1027A0002046FFF7EDFB00F005FB0020D4E7FFF724
:1027B000F7FCA06BE16B884213D1FFF711FD04F128
:1027C00010000499FFF7BEFD2046FFF7D9FB00F08B
:1027D000F1FA00289ED13E60BFF34F8FBFF36F8F99
:1027E00098E7FFF7FDFC2046FFF7CAFB00F0E2FA8E
:1027F00090E7000004ED00E070B50E46040009D03B
:10280000206C78B1502080F31188BFF34F8FBFF355
:102810006F8FFEE7502080F31188BFF34F8FBFF317
:102820006F8FFEE7206848B9606838B1502080F3A8
:102830001188BFF34F8FBFF36F8FFEE7FFF724FDC3
:102840005020EFF3118580F31188BFF34F8FBFF352
:102850006F8FA16BE06B884218D994F94500491C31
:10286000A163411C04D0401C84F8450001200EE007
:10287000606A0028FAD004F1240000F061FA002810
:10288000F4D0002EF2D001203060EFE7002085F375
:10289000118870BD2DE9F343002683B0040035464E
:1028A00009D0206C78B1502080F31188BFF34F8F8E
:1028B000BFF36F8FFEE7502080F31188BFF34F8F77
:1028C000BFF36F8FFEE700F033F9DFF83C814FF084
:1028D00000094FF0805748B9049838B1502080F370
:1028E0001188BFF34F8FBFF36F8FFEE7FFF758FCE0
:1028F000A06BC8B1401EA063206810B9FFF7E2FBCF
:102900006060206950B104F1100000F019FA28B19C
:10291000C8F80070BFF34F8FBFF36F8FFFF760FCF5
:10292000012005B0BDE8F083049808B166B10FE05E
:102930003DB1502080F31188BFF34F8FBFF36F8FED
:10294000FEE7FFF74DFC5DE06846FFF7EDFC012672
:10295000FFF746FCFFF798FDFFF722FC94F94400CF
:10296000401C01D184F8449094F94500401C01D1E9
:1029700084F84590FFF734FC04A9684600F046F857
:102980000028204612D0FFF7FBFA00F013FA204689
:10299000FFF7C4FA0028A9D09DB3FFF701FC606AD5
:1029A00050B3206B0068C0F1070126E0FFF7B6FACC
:1029B000E0B1206838B9FFF7F3FB606800F076F902
:1029C0000546FFF70DFC04F124000499FFF7BAFC5B
:1029D0002046FFF7D5FA00F0EDF9002886D1C8F8B7
:1029E0000070BFF34F8FBFF36F8F7FE72046FFF775
:1029F000C7FA00F0DFF979E700216068FFF7BAFC59
:102A00009FE7FFE700208CE704ED00E02DE9F041AF
:102A10000C46050011D0C4B1FFF7C2FB174B5A6931
:102A20006E682068911B471C17D02F689B6A9F42D5
:102A300019D0964217D8012410E0502080F3118855
:102A4000BFF34F8FBFF36F8FFEE7502080F31188E5
:102A5000BFF34F8FBFF36F8FFEE70024FFF7C0FB7C
:102A60002046BDE8F081884205D9401A20602846FA
:102A7000FFF75AFCF1E700202060DCE7200000208F
:102A80002DE9FF5F8346DDE90E87994616468A46A3
:102A90009000FFF7ABFA05001CD05420FFF7A6FA10
:102AA000040014D00020256384F85100CDE90240D1
:102AB000CDE900874B46324651465846FFF7C1F9EB
:102AC0002046FFF7A7F8012004B0BDE8F09F284694
:102AD000FFF79AFB4FF0FF30F6E7F0B585B0DDE980
:102AE0000B640A9DA6B1DCB1542700972663022629
:102AF00084F85160002604AFCDE90246CDE90057C5
:102B0000FFF79FF92046FFF785F8049805B0F0BD60
:102B1000502080F31188BFF34F8FBFF36F8FFEE714
:102B2000502080F31188BFF34F8FBFF36F8FFEE704
:102B30000548C16919B1806B18B1002070470120A8
:102B40007047022070470000200000202DE9F0416E
:102B50002E4C0027A06B40B1206A401C2062606AA6
:102B600000B101273846BDE8F0816669761C6661D0
:102B700013D16068006838B1502080F31188BFF32A
:102B80004F8FBFF36F8FFEE76068A1686160A06040
:102B9000A06A401CA062FFF7CFF9206BDFF87080BD
:102BA000864209D36068006880B16068C068C56803
:102BB000686886420DD220632068C06A00EB8001FD
:102BC00058F821000128CAD90127C8E74FF0FF3083
:102BD000F1E7281DFFF794FAA86A18B105F118006B
:102BE000FFF78EFAE86A0121A26981401143A161D1
:102BF00000EB800108EB8100291DFFF7C5FAE86AA8
:102C00002168C96A8842CDD30127CBE72000002084
:102C1000C803002070B504004FF0000140D0214DE2
:102C20002868844207D0502080F31188BFF34F8F6B
:102C3000BFF36F8FFEE7A06C38B1401EA064636CD9
:102C4000E26A9A422CD040B12AE0502080F31188E9
:102C5000BFF34F8FBFF36F8FFEE7201DFFF750FAD2
:102C6000114A012150B9E06A00EB800352F8233089
:102C700023B9AB6901FA00F08343AB61606CE06299
:102C8000C0F10700A061E06AAB6981401943A96106
:102C900000EB800002EB8000211DFFF775FA012197
:102CA000084670BD20000020C803002070B5040055
:102CB0004FF0000038D0204DE16A2A68D26A914274
:102CC00033D2A069002804DB2868C06AC0F107007D
:102CD000A0611A4E01EB8101606906EB8101884217
:102CE0001ED1201DFFF70CFA012150B9E06A00EB5C
:102CF000800256F8222022B9AA6901FA00F0824324
:102D0000AA612868C06AE062AA6981401143A9618A
:102D100000EB800006EB8000211DFFF735FA02E092
:102D20002868C06AE062012070BD616C2A68D26ABE
:102D30009142F8D370BD000020000020C80300209D
:102D40002DE9F041C068C468ACB104F11800074631
:102D5000FFF7D6F9154DA86B0126A0B139461448E6
:102D6000FFF712FAE06A2968C96A88421CD9012073
:102D70006E62BDE8F081502080F31188BFF34F8F61
:102D8000BFF36F8FFEE7201DFFF7BAF9E16AAA696A
:102D900006FA01F01043A86101EB81000449B4393F
:102DA00001EB8000211DDBE70020E2E7200000208E
:102DB0007C0400202DE9F0472C4D00242746A86B09
:102DC00038B1FFF7EDF9A86B401EA863A86B40B1BE
:102DD00046E0502080F31188BFF34F8FBFF36F8F11
:102DE000FEE72969224E0120D1B3A6F1B40980463D
:102DF0003068E8B1F068C46804F11800FFF780F9A2
:102E0000201DFFF77DF9E06AAA6908FA00F1114375
:102E1000A96100EB800109EB8100211DFFF7B4F9E6
:102E2000E06A2968C96A8842E2D3C5F82480DFE7EE
:102E30000CB1FFF781F82C6A44B14646FFF786FED5
:102E400000B16E62641EF9D100202862686A38B150
:102E50000849012738070860BFF34F8FBFF36F8F12
:102E6000FFF7BEF93846BDE8F087000020000020DB
:102E70007C04002004ED00E0B84000089918000828
:102E800000000000000000008000000000000000C2
:102E9000000000009C4000085115000800000000E0
:102EA00000000000400000000000000000000000E2
:102EB000A0400008451500080100000000000000C7
:102EC000000100000000000000000000AC4000080D
:102ED000A9060008010000000000000080000000BA
:102EE00000000000000000000000000000000000E2
:102EF00001020304060708090000000000000000AA
:102F0000000000000000000000007E81A58181A576
:102F10009981817E0000000000007EFFDBFFFFDB67
:102F2000E7FFFF7E00000000000000006CFEFEFED8
:102F3000FE7C3810000000000000000010387CFE0D
:102F40007C38100000000000000000183C3CE7E75F
:102F5000E718183C00000000000000183C7EFFFF4E
:102F60007E18183C00000000000000000000183C23
:102F70003C18000000000000FFFFFFFFFFFFE7C359
:102F8000C3E7FFFFFFFFFFFF00000000003C6642B9
:102F900042663C0000000000FFFFFFFFFFC399BD39
:102FA000BD99C3FFFFFFFFFF00001E060E1A78CC7D
:102FB000CCCCCC780000000000003C666666663C25
:102FC000187E18180000000000003F333F303030FA
:102FD0003070F0E00000000000007F637F636363F7
:102FE0006367E7E6C00000000000001818DB3CE75C
:102FF0003CDB1818000000000080C0E0F0F8FEF88C
:10300000F0E0C080000000000002060E1E3EFE3E02
:103010001E0E0602000000000000183C7E18181862
:103020007E3C18000000000000006666666666666A
:10303000660066660000000000007FDBDBDB7B1BB8
:103040001B1B1B1B00000000007CC660386CC6C642
:103050006C380CC67C00000000000000000000007E
:10306000FEFEFEFE000000000000183C7E1818184E
:103070007E3C187E000000000000183C7E181818E6
:103080001818181800000000000018181818181850
:10309000187E3C18000000000000000000180CFE24
:1030A0000C1800000000000000000000003060FE6E
:1030B0006030000000000000000000000000C0C000
:1030C000C0FE0000000000000000000000286CFEB0
:1030D0006C28000000000000000000001038387C60
:1030E0007CFEFE000000000000000000FEFE7C7C74
:1030F0003838100000000000000000000000000050
:1031000000000000000000000000183C3C3C1818C3
:103110001800181800000000006666662400000011
:1031200000000000000000000000006C6CFE6C6CF1
:103130006CFE6C6C0000000018187CC6C2C07C06D7
:103140000686C67C1818000000000000C2C60C18D5
:103150003060C686000000000000386C6C3876DCF9
:10316000CCCCCC7600000000003030306000000095
:10317000000000000000000000000C18303030306B
:103180003030180C00000000000030180C0C0C0C43
:103190000C0C1830000000000000000000663CFF2E
:1031A0003C66000000000000000000000018187ECF
:1031B00018180000000000000000000000000000DF
:1031C000001818183000000000000000000000FE89
:1031D00000000000000000000000000000000000EF
:1031E00000001818000000000000000002060C1883
:1031F0003060C080000000000000386CC6C6D6D623
:10320000C6C66C380000000000001838781818187E
:103210001818187E0000000000007CC6060C18304C
:1032200060C0C6FE0000000000007CC606063C062A
:103230000606C67C0000000000000C1C3C6CCCFEA6
:103240000C0C0C1E000000000000FEC0C0C0FC06FC
:103250000606C67C0000000000003860C0C0FCC646
:10326000C6C6C67C000000000000FEC606060C189C
:10327000303030300000000000007CC6C6C67CC67E
:10328000C6C6C67C0000000000007CC6C6C67E061E
:1032900006060C780000000000000000181800006E
:1032A00000181800000000000000000018180000BE
:1032B0000018183000000000000000060C183060F4
:1032C00030180C060000000000000000007E000026
:1032D0007E000000000000000000006030180C06B6
:1032E0000C1830600000000000007CC6C60C1818E6
:1032F00018001818000000000000007CC6C6DEDEC2
:10330000DEDCC07C00000000000010386CC6C6FE89
:10331000C6C6C6C6000000000000FC6666667C6685
:10332000666666FC0000000000003C66C2C0C0C0CB
:10333000C0C2663C000000000000F86C666666666D
:1033400066666CF8000000000000FE66626878683F
:10335000606266FE000000000000FE666268786839
:10336000606060F00000000000003C66C2C0C0DE8B
:10337000C6C6663A000000000000C6C6C6C6FEC645
:10338000C6C6C6C60000000000003C181818181871
:103390001818183C0000000000001E0C0C0C0C0C4F
:1033A000CCCCCC78000000000000E666666C787833
:1033B0006C6666E6000000000000F060606060601F
:1033C000606266FE000000000000C6EEFEFED6C68B
:1033D000C6C6C6C6000000000000C6E6F6FEDECE89
:1033E000C6C6C6C60000000000007CC6C6C6C6C66B
:1033F000C6C6C67C000000000000FC6666667C60F5
:10340000606060F00000000000007CC6C6C6C6C652
:10341000C6D6DE7C0C0E00000000FC6666667C6C86
:10342000666666E60000000000007CC6C660380CD8
:1034300006C6C67C0000000000007E7E5A181818E0
:103440001818183C000000000000C6C6C6C6C6C654
:10345000C6C6C67C000000000000C6C6C6C6C6C6FA
:10346000C66C3810000000000000C6C6C6C6D6D61E
:10347000D6FEEE6C000000000000C6C66C7C38383A
:103480007C6CC6C6000000000000666666663C18DC
:103490001818183C000000000000FEC6860C18300A
:1034A00060C2C6FE0000000000003C30303030300A
:1034B0003030303C0000000000000080C0E0703878
:1034C0001C0E06020000000000003C0C0C0C0C0C52
:1034D0000C0C0C3C0000000010386CC60000000012
:1034E00000000000000000000000000000000000DC
:1034F0000000000000FF0000303018000000000055
:1035000000000000000000000000000000780C7CBB
:10351000CCCCCC76000000000000E06060786C66E7
:103520006666667C0000000000000000007CC6C0EB
:10353000C0C0C67C0000000000001C0C0C3C6CCC21
:10354000CCCCCC760000000000000000007CC6FE61
:10355000C0C0C67C000000000000386C6460F060F1
:10356000606060F000000000000000000076CCCC3D
:10357000CCCCCC7C0CCC78000000E060606C766633
:10358000666666E60000000000001818003818188B
:103590001818183C0000000000000606000E060681
:1035A0000606060666663C000000E06060666C7811
:1035B000786C66E60000000000003818181818182B
:1035C0001818183C000000000000000000ECFED6B7
:1035D000D6D6D6C6000000000000000000DC6666FB
:1035E000666666660000000000000000007CC6C63B
:1035F000C6C6C67C000000000000000000DC666655
:103600006666667C6060F000000000000076CCCC4E
:10361000CCCCCC7C0C0C1E000000000000DC7666DC
:10362000606060F00000000000000000007CC660E8
:10363000380CC67C000000000000103030FC303038
:103640003030361C000000000000000000CCCCCC64
:10365000CCCCCC760000000000000000006666665E
:1036600066663C18000000000000000000C6C6D6D8
:10367000D6D6FE6C000000000000000000C66C38CA
:1036800038386CC6000000000000000000C6C6C646
:10369000C6C6C67E060CF8000000000000FECC186E
:1036A0003060C6FE0000000000000E1818187018E8
:1036B0001818180E0000000000001818181800183C
:1036C00018181818000000000000701818180E18BC
:1036D0001818187000000000000076DC00000000E0
:1036E00000000000000000000000000010386CC660
:1036F000C6C6FE000000000000003C66C2C0C0C09C
:10370000C2663C0C067C00000000CC0000CCCCCC97
:10371000CCCCCC7600000000000C1830007CC6FE3B
:10372000C0C0C67C000000000010386C00780C7C23
:10373000CCCCCC76000000000000CC0000780C7CE3
:10374000CCCCCC76000000000060301800780C7CF7
:10375000CCCCCC760000000000386C3800780C7CB3
:10376000CCCCCC7600000000000000003C6660601D
:10377000663C0C063C0000000010386C007CC6FE65
:10378000C0C0C67C000000000000C600007CC6FE71
:10379000C0C0C67C0000000000603018007CC6FE7F
:1037A000C0C0C67C00000000000066000038181889
:1037B0001818183C0000000000183C660038181863
:1037C0001818183C00000000006030180038181865
:1037D0001818183C0000000000C60010386CC6C65F
:1037E000FEC6C6C600000000386C3800386CC6C67D
:1037F000FEC6C6C60000000018306000FE66607C91
:10380000606066FE000000000000000000CC76361C
:103810007ED8D86E0000000000003E6CCCCCFECC00
:10382000CCCCCCCE000000000010386C007CC6C6AA
:10383000C6C6C67C000000000000C600007CC6C6EC
:10384000C6C6C67C0000000000603018007CC6C6FA
:10385000C6C6C67C00000000003078CC00CCCCCCC2
:10386000CCCCCC76000000000060301800CCCCCC72
:10387000CCCCCC76000000000000C60000C6C6C656
:10388000C6C6C67E060C780000C6007CC6C6C6C684
:10389000C6C6C67C0000000000C600C6C6C6C6C6B6
:1038A000C6C6C67C000000000018183C6660606058
:1038B000663C18180000000000386C6460F060601E
:1038C0006060E6FC00000000000066663C187E18A0
:1038D0007E1818180000000000F8CCCCF8C4CCDE2C
:1038E000CCCCCCC600000000000E1B1818187E18A7
:1038F00018181818D87000000018306000780C7C78
:10390000CCCCCC7600000000000C18300038181821
:103910001818183C0000000000183060007CC6C673
:10392000C6C6C67C000000000018306000CCCCCCBD
:10393000CCCCCC7600000000000076DC00DC6666B3
:10394000666666660000000076DC00C6E6F6FEDE0F
:10395000CEC6C6C600000000003C6C6C3E007E0077
:10396000000000000000000000386C6C38007C0093
:103970000000000000000000000030300030306027
:10398000C0C6C67C00000000000000000000FEC0B1
:10399000C0C0C00000000000000000000000FE06E3
:1039A000060606000000000000C0C0C2C6CC1830E9
:1039B00060DC860C183E000000C0C0C2C6CC1830C7
:1039C00066CE9E3E06060000000018180018181863
:1039D0003C3C3C18000000000000000000366CD8A1
:1039E0006C360000000000000000000000D86C36BB
:1039F0006CD800000000000011441144114411442F
:103A0000114411441144114455AA55AA55AA55AA66
:103A100055AA55AA55AA55AADD77DD77DD77DD775A
:103A2000DD77DD77DD77DD77181818181818181886
:103A3000181818181818181818181818181818F826
:103A400018181818181818181818181818F818F836
:103A5000181818181818181836363636363636F636
:103A6000363636363636363600000000000000FEA8
:103A700036363636363636360000000000F818F88E
:103A800018181818181818183636363636F606F676
:103A900036363636363636363636363636363636C6
:103AA00036363636363636360000000000FE06F66C
:103AB00036363636363636363636363636F606FE4E
:103AC000000000000000000036363636363636FE7E
:103AD00000000000000000001818181818F818F866
:103AE000000000000000000000000000000000F8DE
:103AF0001818181818181818181818181818181F3F
:103B0000000000000000000018181818181818FF0E
:103B1000000000000000000000000000000000FFA6
:103B20001818181818181818181818181818181F0E
:103B3000181818181818181800000000000000FFC6
:103B4000000000000000000018181818181818FFCE
:103B5000181818181818181818181818181F181FD7
:103B600018181818181818183636363636363637E4
:103B70003636363636363636363636363637303FE1
:103B8000000000000000000000000000003F30378F
:103B900036363636363636363636363636F700FF71
:103BA00000000000000000000000000000FF00F71F
:103BB00036363636363636363636363636373037A9
:103BC00036363636363636360000000000FF00FF47
:103BD00000000000000000003636363636F700F7E9
:103BE00036363636363636361818181818FF00FFAF
:103BF000000000000000000036363636363636FF4C
:103C000000000000000000000000000000FF00FFB6
:103C1000181818181818181800000000000000FFE5
:103C20003636363636363636363636363636363F2B
:103C3000000000000000000018181818181F181FB6
:103C4000000000000000000000000000001F181F1E
:103C50001818181818181818000000000000003F65
:103C6000363636363636363636363636363636FF2B
:103C700036363636363636361818181818FF18FF06
:103C8000181818181818181818181818181818F8D4
:103C90000000000000000000000000000000001F05
:103CA0001818181818181818FFFFFFFFFFFFFFFF5C
:103CB000FFFFFFFFFFFFFFFF00000000000000FF0D
:103CC000FFFFFFFFFFFFFFFFF0F0F0F0F0F0F0F07C
:103CD000F0F0F0F0F0F0F0F00F0F0F0F0F0F0F0FEC
:103CE0000F0F0F0F0F0F0F0FFFFFFFFFFFFFFF0063
:103CF0000000000000000000000000000076DCD89A
:103D0000D8D8DC7600000000000078CCCCCCD8CC31
:103D1000C6C6C6CC000000000000FEC6C6C0C0C0BB
:103D2000C0C0C0C00000000000000000FE6C6C6C51
:103D30006C6C6C6C00000000000000FEC660301867
:103D40003060C6FE0000000000000000007ED8D8F1
:103D5000D8D8D870000000000000000066666666D3
:103D6000667C6060C00000000000000076DC18186F
:103D700018181818000000000000007E183C666645
:103D8000663C187E00000000000000386CC6C6FECD
:103D9000C6C66C38000000000000386CC6C6C66C91
:103DA0006C6C6CEE0000000000001E30180C3E66CB
:103DB0006666663C0000000000000000007EDBDB61
:103DC000DB7E00000000000000000003067EDBDB5D
:103DD000F37E60C00000000000001C3060607C606A
:103DE0006060301C000000000000007CC6C6C6C633
:103DF000C6C6C6C60000000000000000FE0000FEAF
:103E00000000FE00000000000000000018187E18EE
:103E1000180000FF0000000000000030180C060C25
:103E20001830007E000000000000000C18306030E8
:103E3000180C007E0000000000000E1B1B18181854
:103E400018181818181818181818181818181818F2
:103E5000D8D8D87000000000000000001818007EBC
:103E60000018180000000000000000000076DC00D0
:103E700076DC00000000000000386C6C38000000A8
:103E8000000000000000000000000000000000181A
:103E9000180000000000000000000000000000000A
:103EA0001800000000000000000F0C0C0C0C0CECC3
:103EB0006C6C3C1C0000000000D86C6C6C6C6C00DE
:103EC00000000000000000000070D83060C8F8005A
:103ED0000000000000000000000000007C7C7C7CF2
:103EE0007C7C7C000000000000000000000000005E
:103EF000000000000000000001960000000000002B
:103F0000000000000000000000000011960000000A
:103F10000000000000000000000000000000B100F0
:103F200003012C2D00000000000000000000000034
:103F300000B20003012C2D00000000000000000072
:103F400000000000B30006012C2D012C2D00000004
:103F500000000000000000B40001070000000000A5
:103F600000000000000000000000C00003A2028466
:103F700000000000000000000000000000C100017F
:103F8000C50000000000000000000000000000006C
:103F9000C200020A00000000000000000000000053
:103FA000000000C300028A2A000000000000000098
:103FB000000000000000C400028AEE0000000000C3
:103FC000000000000000000000C500010E0000001D
:103FD00000000000000000000000000020000000C1
:103FE000000000000000000000000000000000369B
:103FF00000000000000000000000000000000000C1
:1040000000003A0001050000000000000000000070
:1040100000000000002A00040002008100000000EF
:1040200000000000000000002B0004000100A000C0
:104030000000000000000000000000E00010021C72
:1040400007123732292D29252B3900010310E100F1
:1040500010031D07062E2C292D2E2E373F0000029F
:1040600010296400000000000000000000000000B3
:1040700000000000130A0000000000000000000023
:104080000000000000000000000000000000000030
:104090000000000000000000000000004C4544004B
:1040A0004C43445F464C55534800000042757474BD
:1040B0006F6E5F5461736B0064656661756C7454F8
:1040C00061736B00E44000080000002094000000D1
:1040D0006C010008784100089400002084B60000BC
:1040E000880100080000000000000000000000003F
:1040F00000000000010000001000000000000000AF
:104100000024F40000000000000000000000000097
:10411000000000000000000000000000000000009F
:10412000000000000000000000000000000000008F
:10413000000000000000000000000000000000007F
:10414000000000000000000000000000000000006F
:10415000000000000000000000000000AAAAAAAAB7
:10416000000000000000000000000000000000004F
:0841700000000000F000000057
:0400000508000131BD
:00000001FF
